:100000000C9486000C94AE000C94AE000C94AE00E0
:100010000C94AE000C94AE000C94AE000C94AE00A8
:100020000C94AE000C94AE000C94F70E0C94BE0E23
:100030000C94850E0C94AE000C94AE000C94AE00A3
:100040000C94C40C0C94AE000C94340D0C940E0D56
:100050000C94AE000C94AE000C94AE000C94AE0068
:100060000C94660D0C94AE0007634236B79BD8A77C
:100070001A39685618AEBAAB558C1D3CB7CC5763CD
:10008000BD6DEDFD753EF6177231BF000000803F7B
:10009000005EBCE2613FDD83C29C7E20A3FD1F4168
:1000A000009D23BE46DB65F88C11AF32CA57E97458
:1000B00000000000240027002A00000000002500A6
:1000C00028002B00000000080002010000030407C4
:1000D00000000000000000000000000023002600D7
:1000E00029000404040404040404020202020202BB
:1000F00003030303030301020408102040800102EC
:1001000004081020010204081020C20F11241FBE91
:10011000CFEFD8E0DEBFCDBF13E0A0E0B1E0E0E27A
:10012000F5E302C005900D92AA36B107D9F725E094
:10013000AAE6B3E001C01D92A237B207E1F710E0D2
:10014000C6E8D0E004C02197FE010E941F18C53800
:10015000D107C9F70E948D100C948E1A0C940000E0
:1001600090E0FC01EC53FF4F2491FC01EA50FF4F5B
:100170003491FC01EE51FF4FE491EE23C9F02223AC
:1001800039F0233001F1A8F4213019F1223029F19E
:10019000F0E0EE0FFF1FE654FF4FA591B4918FB72B
:1001A000F894EC91611126C030953E233C938FBFAB
:1001B00008952730A9F02830C9F0243049F78091FC
:1001C00080008F7D03C0809180008F7780938000B6
:1001D000DFCF84B58F7784BDDBCF84B58F7DFBCF38
:1001E0008091B0008F778093B000D2CF8091B00023
:1001F0008F7DF9CF3E2BDACFCF93DF9390E0FC01D8
:10020000EA50FF4F24918E519F4FFC018491882327
:10021000D1F090E0880F991FFC01E055FF4FA591A8
:10022000B491FC01E654FF4FC591D49161110EC009
:100230009FB7F8948C91E22FE0958E238C932881C0
:10024000E223E8839FBFDF91CF9108958FB7F894A1
:10025000EC91E22BEC938FBFF6CF3FB7F8948091EF
:10026000F5039091F603A091F703B091F80326B53A
:10027000A89B05C02F3F19F00196A11DB11D3FBFDE
:10028000BA2FA92F982F8827BC01CD01620F711DAD
:10029000811D911D42E0660F771F881F991F4A95A7
:1002A000D1F708958F929F92AF92BF92CF92DF9233
:1002B000EF92FF924B015C010E942D016B017C01CA
:1002C0000E942D016C197D098E099F09683E7340BB
:1002D00081059105A8F321E0821A9108A108B108CF
:1002E00088EEC80E83E0D81EE11CF11C8114910435
:1002F000A104B10429F7FF90EF90DF90CF90BF9059
:10030000AF909F908F90089508950895AF92BF92F7
:10031000CF92DF92EF92FF920F931F93CF93DF93D1
:100320006C017B018B01040F151FEB015E01AE1800
:10033000BF08C017D10759F06991D601ED91FC9122
:100340000190F081E02DC6010995892B79F7C5014F
:10035000DF91CF911F910F91FF90EF90DF90CF90A1
:10036000BF90AF900895FC01538D448D252F30E050
:10037000842F90E0821B930B541710F0CF960895B2
:1003800001970895FC01918D828D981761F0A28DDF
:10039000AE0FBF2FB11D5D968C91928D9F5F9F73A5
:1003A000928F90E008958FEF9FEF0895FC01918D5B
:1003B000828D981731F0828DE80FF11D858D90E0C8
:1003C00008958FEF9FEF0895FC01918D228D892F65
:1003D00090E0805C9F4F821B91098F73992708954D
:1003E0008BE594E00E94E40121E0892B09F420E0F0
:1003F000822F089580E090E0892B29F00E94F0017F
:1004000081110C9400000895FC01A48DA80FB92F50
:10041000B11DA35ABF4F2C91848D90E001968F732C
:100420009927848FA689B7892C93A089B1898C914B
:10043000837080648C93938D848D981306C002889A
:10044000F389E02D80818F7D80830895EF92FF9264
:100450000F931F93CF93DF93EC0181E0888F9B8DE7
:100460008C8D98131AC0E889F989808185FF15C0A1
:100470009FB7F894EE89FF896083E889F9898081C4
:100480008370806480839FBF81E090E0DF91CF9193
:100490001F910F91FF90EF900895F62E0B8D10E0B5
:1004A0000F5F1F4F0F731127E02E8C8D8E110CC024
:1004B0000FB607FCFACFE889F989808185FFF5CF6F
:1004C000CE010E940402F1CFEB8DEC0FFD2FF11D48
:1004D000E35AFF4FF0829FB7F8940B8FEA89FB89AC
:1004E00080818062CFCFCF93DF93EC01888D88230A
:1004F000B9F0AA89BB89E889F9898C9185FD03C087
:10050000808186FD0DC00FB607FCF7CF8C9185FF6B
:10051000F2CF808185FFEDCFCE010E940402E9CFAA
:10052000DF91CF910895DC0180E0615090F09D91C2
:100530009827E92FEF70F0E0E057FF4F2491E92F63
:10054000E295EF70F0E0E056FF4FE491822F8E27A6
:10055000ECCF0895DC012C911196ED91FC91F8946B
:100560008181822B81839281322F309593239283D4
:1005700087E090E00197F1F781818323818383E213
:1005800090E00197F1F790817894EFECF0E03197EB
:10059000F1F7922381E009F480E00895FC01908155
:1005A0000180F281E02D292F209560FF14C0F8947E
:1005B0008281822382838181892B8183A3E2B0E0BF
:1005C0001197F1F78281982B9283789487ED90E0D0
:1005D0000197F1F70895F8948281822382838181C3
:1005E000892B8183AFEFB0E01197F1F78281982BCF
:1005F000928378948FE090E0EBCFEF92FF920F938D
:100600001F93CF93DF93EC01E62E08E010E0FF2468
:10061000F39461E08E2D8F2109F460E0CE010E94F9
:10062000CE02FF0C01501109A1F7F894E981FA817B
:1006300091818881809589238183E981FA819281E2
:1006400088818095892382837894DF91CF911F914F
:100650000F91FF90EF900895EF92FF920F931F93E9
:10066000CF93DF938C017B0165E50E94FD02E701DA
:1006700088E0E80EF11C6991C8010E94FD02CE15C8
:10068000DF05C9F7DF91CF911F910F91FF90EF9098
:100690000895FC0190810180F281E02DF894818120
:1006A000292F20958223818378943DE743E050E011
:1006B000315029F1DA011197F1F780818923C1F3D3
:1006C000F8948281822382838181892B818378942B
:1006D000ABE7B7E01197F1F7F8948181822381832A
:1006E000A3E1B1E01197F1F78081982381E009F04F
:1006F00080E07894E3E6F6E03197F1F7089580E042
:100700000895CF93E0915A05EA50CFE1E33020F409
:10071000F0E0ED55FD4FC08180915705909158054F
:100720000E9449036FE475E0809157059091580548
:100730000E942C036EE480915705909158050E9409
:10074000FD0260E080915705909158050E94FD02DE
:1007500064E680915705909158050E94FD026C2F28
:1007600080915705909158050E94FD028091570590
:1007700090915805CF910C944903AF92BF92CF92BC
:10078000DF92EF92FF920F931F93CF93DF93182F77
:10079000092FD62E80915705909158050E94490344
:1007A0006FE475E080915705909158050E942C03E5
:1007B0006EEB80915705909158050E94FD02C12E65
:1007C000C12FD02FA0905705B090580588E0E82E93
:1007D000F12C10E001E0C5010E94AA028111102B4A
:1007E000000F81E0E81AF108B1F719938C2F8C19EA
:1007F0008D1540F38091570590915805DF91CF9169
:100800001F910F91FF90EF90DF90CF90BF90AF902E
:100810000C94490320919703260F3327331F21326D
:100820003105ECF420913F04FC0190E080E024309D
:1008300069F082E00895A09197032191AC01495895
:100840005C4FA40FB52FB11D2C930196861798F31A
:1008500080919703680F6093970380E0089581E08B
:10086000089510923F0481E080931E0410921904B1
:1008700061E082E10E94B00061E083E10E94B0008B
:10088000E9EBF0E080818E7F808380818D7F8083A3
:1008900088E48093B80085E48093BC000895CF93EA
:1008A000DF9391E0909376038823B9F0C091B8006C
:1008B000D091BA008091BC008A7B8093BC0060E03C
:1008C00082E10E94B00060E083E10E94B0000E94DB
:1008D0003104D093BA00C093B800DF91CF9108954E
:1008E000CF92DF92EF92FF920F931F93CF93DF93FC
:1008F000D82FC62F613208F098C00E942D016B01DD
:100900007C0180913F0481116BC081E080933F04A2
:1009100080931E049FEF90931D0410921C049C0F63
:1009200090931B0480931A0480911A04DD0FD82B36
:10093000D0931A0480911904813009F078C0109284
:1009400019040E942D016B017C0180911A0480938F
:10095000BB008091410490914204A0914304B09166
:100960004404892B8A2B8B2BA1F00E942D0100912E
:1009700041041091420420914304309144046C19C5
:100980007D098E099F09061717072807390708F4FC
:1009900048C08091BC0083FDD8CF85EC8093BC001B
:1009A0000E942D016B017C0180913F04813009F48C
:1009B00040C080911C048C1710F4C0911C04E9EF16
:1009C000F3E0AFE1B4E080E08C1355C08C2FDF91F1
:1009D000CF911F910F91FF90EF90DF90CF900895EE
:1009E0008091410490914204A0914304B091440449
:1009F000892B8A2B8B2B09F484CF0E942D01009127
:100A000041041091420420914304309144046C1934
:100A10007D098E099F09061717072807390708F06F
:100A200070CF809140040E944F04C0E0CFCF85EE8C
:100A3000B5CF8091410490914204A0914304B091BC
:100A40004404892B8A2B8B2B09F4AECF0E942D01F5
:100A500000914104109142042091430430914404D8
:100A60006C197D098E099F09061717072807390792
:100A700008F09ACFD6CF91919D938F5FA5CF08951F
:100A8000E091E3038091E203E81730F4F0E0E15EE7
:100A9000FB4F808190E008958FEF9FEF0895909134
:100AA000E3038091E2032FEF3FEF981748F4E92F1B
:100AB000F0E0E15EFB4F208130E09F5F9093E30325
:100AC000C90108958091E2039091E303891B990B7A
:100AD0000895CF92DF92EF92FF920F931F93CF93DF
:100AE000DF937C01CB018A012091E103222389F06D
:100AF000EB016B01C40ED51ECC15DD0569F06991C3
:100B0000D701ED91FC910190F081E02DC70109958D
:100B1000F3CF642F0E940A04C801DF91CF911F9187
:100B20000F91FF90EF90DF90CF900895CF93DF93D8
:100B30001F92CDB7DEB769832091E1032223F9F03C
:100B40002091DE03203258F021E030E0FC013383B5
:100B5000228390E080E00F90DF91CF910895809103
:100B6000DF03E82FF0E0E254FC4F998190838F5F20
:100B70008093DF038093DE0381E090E0ECCF61E0BF
:100B8000CE0101960E940A04F7CF90E080E008951C
:100B9000CF92DF92EF92FF92CF93DF93EC016A0145
:100BA0007B01E881F9810088F189E02D099588238E
:100BB000E9F020E030E040E052E4C701B6010E94D5
:100BC000CA1426E636E646EE5FE30E943C15AB010A
:100BD000BC01E881F9810084F185E02DCE01DF912F
:100BE000CF91FF90EF90DF90CF90099460E87FE481
:100BF00083EC97ECDF91CF91FF90EF90DF90CF9057
:100C00000895CF92DF92EF92FF920F931F93CF93AD
:100C1000DF938C016A017B01D1E0AB019601FC01FD
:100C200066817781808591850E94371518160CF4AE
:100C3000D0E0C1E0A7019601F8016281738184814F
:100C400095810E94F71687FDC0E08D2F8C23DF91E0
:100C5000CF911F910F91FF90EF90DF90CF9008956B
:100C6000CF92DF92EF92FF92CF93DF936A017B01E5
:100C7000D1E020E030E047E853ECCB01B6010E9420
:100C8000F71687FDD0E0C1E020E030E84BEA54E4FD
:100C9000C701B6010E94371518160CF4C0E08D2F5D
:100CA0008C23DF91CF91FF90EF90DF90CF9008954C
:100CB000CF92DF92EF92FF92CF93DF936A017B0195
:100CC000D1E022E133E84CEB50ECCB01B6010E94BD
:100CD000F71687FDD0E0C1E024E43BE84BE552E4A1
:100CE000C701B6010E94371518160CF4C0E08D2F0D
:100CF0008C23DF91CF91FF90EF90DF90CF900895FC
:100D0000CF92DF92EF92FF92DC01ED91FC91019086
:100D1000F081E02D09956B017C0120E83FE443EC74
:100D200057EC0E943715882399F026E636E646EE02
:100D30005FE3C701B6010E94721720E030E040E097
:100D400052E40E94CB14FF90EF90DF90CF90089573
:100D500060E87FE483EC97ECF6CFCF92DF92EF92DE
:100D6000FF920F931F93CF93DF93EC016A017B01F6
:100D7000C901B80120E030E040E052E40E94CA140A
:100D800026E636E646EE5FE30E943C158B019C01A9
:100D9000E881F9810480F581E02DB701A601CE013B
:100DA000099526E636E646EE5FE30E94721720E0DC
:100DB00030E040E052E40E94CB14DF91CF911F91CC
:100DC0000F91FF90EF90DF90CF900895CF92DF9238
:100DD000EF92FF920F931F93CF93DF93EC016A0181
:100DE0007B01B901A801E881F9810084F185E02D3A
:100DF0000995A70196010E94CB14AB01BC01E881C3
:100E0000F9810190F081E02DCE01DF91CF911F910A
:100E10000F91FF90EF90DF90CF9009944F925F92E7
:100E20006F927F928F929F92AF92BF92CF92DF92FA
:100E3000EF92FF920F931F93CF93DF932A013B0111
:100E4000DC01ED91FC910484F585E02D0995882362
:100E500009F471C020E030E0A901C301B2010E9491
:100E6000F716D0E0C0E087FD0EC001E010E029EEEB
:100E700036E245EA51E4C301B2010E943715181663
:100E80000CF400E0E80129EE36E245EA51E4C30142
:100E9000B2010E94F71687FD0CC024E43BE84BE545
:100EA00052E4C301B2010E943715181614F0C2E0D3
:100EB000D0E0CC0FDD1FCC0FDD1FCD52DE4FC12C9B
:100EC000D12C7601812C912C20E8A22E2FE3B22E7A
:100ED00010E000E0288139814A815B81C501B401BD
:100EE0000E9472179B01AC01C701B6010E94CB148E
:100EF0006B017C01A3019201C501B4010E9472172C
:100F00004B015C010F5F1F4F2C960A30110511F742
:100F1000C701B601DF91CF911F910F91FF90EF9024
:100F2000DF90CF90BF90AF909F908F907F906F9009
:100F30005F904F90089580E8C82E8FE4D82E83EC00
:100F4000E82E87ECF82EE4CFFC0101900020E9F7B1
:100F50003197AF01481B590BBC018BE594E00C9411
:100F600086018F929F92AF92BF920F931F93CF9360
:100F7000DF93CDB7DEB7A1970FB6F894DEBF0FBEF3
:100F8000CDBF19A2423008F44AE08E010F5D1F4F19
:100F9000842E912CB12CA12CA50194010E94F21752
:100FA000E62FB901CA01EA30F4F4E05DD801EE930E
:100FB0008D01232B242B252B79F790E080E01097CF
:100FC00019F0CD010E94A407A1960FB6F894DEBFD8
:100FD0000FBECDBFDF91CF911F910F91BF90AF900A
:100FE0009F908F900895E95CE1CFCF93DF93D0E09D
:100FF000C0E0009719F00E94A407EC0180EE92E097
:101000000E94A4078C0F9D1FDF91CF910895CF936D
:10101000DF93EC0183EE92E00E94A407CE01DF9102
:10102000CF910C94F5074EE255E069E075E090E051
:1010300080E00C948E14CF93DF930E941308EC0190
:10104000892B49F08BEF92E00E94A407CE01DF913B
:10105000CF910C94F507DF91CF910895CF93DF9353
:101060000E941308EC01892B49F085E193E00E946E
:10107000A407CE01DF91CF910C94F507DF91CF91BA
:101080000895CF93DF930E941308EC01892B49F058
:1010900085E293E00E94A407CE01DF91CF910C94EA
:1010A000F507DF91CF9108954F925F926F927F92F3
:1010B0008F929F92AF92BF92CF92DF92EF92FF9268
:1010C0000F931F93CF936B017C01742EAC019B0196
:1010D0000E94DF17882399F084E393E0CF911F915A
:1010E0000F91FF90EF90DF90CF90BF90AF909F90C7
:1010F0008F907F906F905F904F900C94A407460163
:101100005701E894B7F82FEF3FEF4FE75FE7C501CE
:10111000B4010E94DF1781110DC02FEF3FEF4FE7A1
:101120005FE7C501B4010E94371518161CF488E367
:1011300093E0D4CF2FEF3FEF4FE75FE4C701B60155
:101140000E94F71618161CF48CE393E0C7CF2FEF1C
:101150003FEF4FE75FECC701B6010E94371587FDEF
:10116000F3CF20E030E0A901C701B6010E94371596
:1011700010E000E087FF0AC06DE28BE594E00E947A
:1011800026028C01F7FAF094F7F8F094C0E060E0E2
:1011900070E080E09FE37C1641F020E030E040E228
:1011A00051E40E943C15CF5FF6CFA70196010E9443
:1011B000CB142B013C010E94EF154B015C014AE06E
:1011C0000E94B1077C01E00EF11ECC23C1F1C501E4
:1011D000B4010E941E169B01AC01C301B2010E9422
:1011E000CA144B015C016EE28BE594E00E9426027A
:1011F000E80EF91EC15018F120E030E040E251E461
:10120000C501B4010E9472172B013C010E94EF1529
:101210004B01B12CA12C4AE0C501B4010E94B107D9
:10122000E80EF91EC501B4010E941E169B01AC0117
:10123000C301B2010E94CA144B015C01DBCFC7019C
:10124000CF911F910F91FF90EF90DF90CF90BF90C3
:10125000AF909F908F907F906F905F904F90089588
:10126000CF92DF92EF92FF92CF93DF936C01990FB1
:10127000EE08FF08F7FE19C06DE28BE594E00E94CE
:101280002602EC0166277727CB016C197D098E09B0
:101290009F094AE00E94B1078C0F9D1FDF91CF91FB
:1012A000FF90EF90DF90CF9008954AE0C701B6011C
:1012B000DF91CF91FF90EF90DF90CF900C94B1072A
:1012C00080E493E00E94A4076091E8037091E90331
:1012D0008091EA039091EB0341E00E94540883E47B
:1012E00093E00E94A4076091E4037091E50380916C
:1012F000E6039091E70341E00E94540883E493E001
:101300000E94A40780916C0390916D030E943009A4
:1013100083E493E00E94A40780916A0390916B0399
:101320000E94300985E493E00E94A4076091EC03D9
:101330007091ED038091EE039091EF0341E00E94E4
:10134000540880EE92E00C94A407AF92BF92CF9223
:10135000DF92EF92FF920F931F93CF93DF93109240
:10136000590583E0B82EAA24A394D0905905D11032
:1013700035C080915705909158050E944903E0912E
:101380005705F09158051386158614861286118626
:1013900010861782168215821482138210924F05CE
:1013A000C0915705D09158058D85882321F11B8662
:1013B0001D861C8680914F05882359F067E08FE4D5
:1013C00095E00E949302DD24D394909156059813E2
:1013D000D12CD0925905BA94B110C7CF809159053C
:1013E000DF91CF911F910F91FF90EF90DF90CF9001
:1013F000BF90AF900895CE010E9449038823B9F2AF
:1014000060EFCE010E94FD0201E0E12CC12C11E051
:10141000CE010E94AA02F82ECE010E94AA0291E0FB
:10142000F91218C0813099F5113408F4C0CFCB8679
:10143000C11001C0AD868B81882309F4B8CFFE01AD
:101440003396AFE4B5E02B9681918D93CE17DF07ED
:10145000D9F7B0CFEE2DF0E0F8120FC08B8518173A
:10146000A0F4DE01AE0FBF1F13968C91802379F498
:10147000F12C193008F41C87C12EEC0FFD1F83815D
:10148000902F9095892383830AC08113F1CFFE01A9
:10149000EE0DF11D8381802B8383FF24F3946F2D48
:1014A000CE010E94CE021F5F000F11F4E39401E011
:1014B00087E08E1508F0ACCFB7CF893041F4109299
:1014C0005204809180008F7B809380000895109259
:1014D0005104809180008F7EF7CFCF93C82F20E0FA
:1014E00030E0A9016091570470915804809159042B
:1014F00090915A040E94371561E087FD10C020E0EA
:1015000030E0A90160915304709154048091550416
:10151000909156040E94F716181664F460E08C2F20
:101520000E94B0008C2F0E945D0A61E08C2FCF9149
:101530000C94FC008FB7C93039F5F8944091010143
:10154000509102018FBF80914F0490915004840FFD
:10155000951F20914D0430914E048217930728F077
:101560009A018417950708F49C018FB7F89450935B
:101570004C0440934B0430934A04209349048FBF9A
:1015800081E080935204D1CFF894409101015091B1
:1015900002018FBF80914F0490915004840F951FDA
:1015A00020914D0430914E048217930728F09A0140
:1015B0008417950708F49C018FB7F894509348045A
:1015C0004093470430934604209345048FBF81E045
:1015D00080935104AACFDF92EF92FF920F931F9353
:1015E000CF93DF937C018B01C4E0D5E08A8190E04A
:1015F00001962FE0D22ED89EB001D99E700D1124F5
:10160000888199810E943418998388832A814CE0CB
:1016100050E0B7012D9D800D911D11240E942019CD
:101620008A81E881F9818D9DE00DF11D11241687D5
:1016300005878F5F8A83DF91CF911F910F91FF9074
:10164000EF90DF900895CF93DF930E9413080097E7
:10165000F9F00E946714C0E097FD0CC0DC01CB01DB
:1016600085369105A105B10524F084E690E0A0E05F
:10167000B0E0C82FC0936E0381E08093000161E069
:1016800087E00E94FC00D0E0D0936D03C0936C0310
:10169000DF91CF9108950F931F93CF930E9413086A
:1016A0000097A1F10E946714C0E097FD0CC0DC0117
:1016B000CB0185369105A105B10524F084E690E0C3
:1016C000A0E0B0E0C82F0C2F10E020E030E048ECA4
:1016D00052E460915704709158048091590490919C
:1016E0005A040E9472170E94EF156C1798F461E07B
:1016F0008AE00E94B0008AE00E945D0A61E08AE010
:101700000E94FC0010936B0300936A03CF911F911A
:101710000F91089520E030E048EC52E460915304CA
:101720007091540480915504909156040E94721750
:101730000E94EF15C61710F460E0DACFF801EE0F43
:10174000FF1FE75FFE4F4081518148515C4F8FB7CB
:10175000F89460910101709102018FBF20914F04B4
:1017600030915004240F351F80914D0490914E0408
:101770002817390728F0CB012617370708F4C901C5
:101780002FB7F8945093480440934704909346042D
:10179000809345042FBF81E080935104AFCF85ED46
:1017A0008093BC008091410490914204A091430435
:1017B000B09144040796A11DB11D23E0B695A795ED
:1017C000979587952A95D1F72091BC0024FD03C0F9
:1017D00010923F0408954091410450914204609159
:1017E000430470914404452B462B472B69F3009723
:1017F000A105B10541F02AE22A95F1F700C0019751
:10180000A109B109E1CF809140040C944F044F929B
:101810005F926F927F928F929F92AF92BF92CF9280
:10182000DF92EF92FF920F931F93CF93DF936A01A2
:101830007B01DC01ED91FC910684F785E02D099593
:10184000882309F498C020E030E047E853ECC70152
:10185000B6010E94F716CBE4D2E087FD42C020E03B
:1018600030E0A901C701B6010E9437151816CCF166
:10187000812C912C5401412C512C20E8622E2FE315
:10188000722E288139814A815B81C301B2010E9495
:1018900072179B01AC01C501B4010E94CB144B012E
:1018A0005C01A7019601C301B2010E9472172B01CE
:1018B0003C012896B2E0C33ADB0719F7C501B40131
:1018C000DF91CF911F910F91FF90EF90DF90CF901C
:1018D000BF90AF909F908F907F906F905F904F9050
:1018E00008950BE912E0812C912C90E8A92E9FE33A
:1018F000B92E412C512C32012C813D814E815F81CA
:10190000C501B4010E9472179B01AC01C301B20171
:101910000E94CB142B013C01A7019601C501B40123
:101920000E9472174B015C0128960C171D0721F7C6
:101930002CEE3FEE4DEF52E4C701B6010E94CA14EF
:101940006B017C0126E03FE248EF58EB0E947217E2
:10195000A70196010E9472170E94B6152CE433EE7F
:1019600042EF5DE30E947217A30192010E94CB1423
:101970004B015C01A3CF80E8882E8FE4982E83EC86
:10198000A82E87ECB82E9ACF1F920F920FB60F9207
:1019900011242F933F938F939F93AF93BF93809185
:1019A000F1039091F203A091F303B091F40330910D
:1019B000F00323E0230F2D3758F50196A11DB11D2B
:1019C0002093F0038093F1039093F203A093F30329
:1019D000B093F4038091F5039091F603A091F7037F
:1019E000B091F8030196A11DB11D8093F50390936A
:1019F000F603A093F703B093F803BF91AF919F91C3
:101A00008F913F912F910F900FBE0F901F901895BF
:101A100026E8230F0296A11DB11DD2CF1F920F926F
:101A20000FB60F9211242F933F934F935F936F93B1
:101A30007F938F939F93AF93BF93EF93FF938BE528
:101A400094E00E940402FF91EF91BF91AF919F91AA
:101A50008F917F916F915F914F913F912F910F9057
:101A60000FBE0F901F9018951F920F920FB60F92F6
:101A700011242F938F939F93EF93FF93E0916B0427
:101A8000F0916C048081E0917104F091720482FD08
:101A90001BC09081809174048F5F8F7320917504B7
:101AA000821741F0E0917404F0E0E55AFB4F958F06
:101AB00080937404FF91EF919F918F912F910F90DC
:101AC0000FBE0F901F9018958081F4CF1F920F9238
:101AD0000FB60F9211242F933F934F935F936F9301
:101AE0007F938F939F93AF93BF93EF93FF938091D7
:101AF000B900887F803609F44AC0F0F5883209F4CD
:101B0000A7C018F5803109F49BC0B8F4882309F404
:101B1000F9C0883009F494C0FF91EF91BF91AF9163
:101B20009F918F917F916F915F914F913F912F91F5
:101B30000F900FBE0F901F901895883109F488C040
:101B4000803251F780931D0414C0803409F49DC085
:101B500040F48033B9F38833F9F680931D0485ECA3
:101B6000B0C0803509F485C0883509F496C0883442
:101B700099F60E94CF0BD0CF883909F48CC038F584
:101B8000883729F050F4883611F0803729F683E041
:101B900080933F041092B90357C0883809F47BC082
:101BA000803919F0803809F0B7CF8091B9038032BD
:101BB00008F071C0E091B90381E08E0F8093B90302
:101BC0008091BB00F0E0E756FC4F80833DC0803B36
:101BD00039F0E0F4803A09F479C0883A09F09CCFF2
:101BE00084E080933F041092980310929703E09151
:101BF000BC03F091BD0309958091970381110FC03B
:101C000081E0809397031092770309C0803C09F428
:101C1000A6CF883C09F4A3CF883B09F07DCFE091A3
:101C2000980381E08E0F80939803F0E0E958FC4F11
:101C300080818093BB00909198038091970329C085
:101C400080911A048093BB0085EC8093BC0064CF24
:101C500090911C0480911B04981758F5E0911C0486
:101C600081E08E0F80931C04F0E0E750FC4F8081F0
:101C7000E9CFE0911C0481E08E0F80931C048091D9
:101C8000BB00F0E0E750FC4F808390911C048091F2
:101C90001B049817C8F285E8D8CFE0911C0481E0B6
:101CA0008E0F80931C048091BB00F0E0E750FC4F46
:101CB000808380911E0481115CCF81E080931904A0
:101CC00084EA8093BC0010923F0426CF85EC809379
:101CD000BC0010923F048091B903803230F4E0914F
:101CE000B903F0E0E756FC4F10826091B90370E051
:101CF000E091BA03F091BB0389E993E00995109252
:101D0000B9030ACF10921D0434CF1F920F920FB661
:101D10000F9211242F933F938F939F9380916F0085
:101D20008B7F80936F00809180008F7E80938000F6
:101D30008091720390917303209174033091750325
:101D4000820F931F90938B0080938A008091840070
:101D50009091850020918A0030918B00821B930B1B
:101D600097FD03C080E4809382009F918F913F9103
:101D70002F910F900FBE0F901F9018951F920F92EA
:101D80000FB60F9211242F933F938F939F938091BF
:101D90006F008D7F80936F00809180008F7B809398
:101DA00080008091700390917103209174033091B1
:101DB0007503820F931F9093890080938800809110
:101DC0008400909185002091880030918900821BC9
:101DD000930B97FD03C080E8809382009F918F91C1
:101DE0003F912F910F900FBE0F901F9018951F924B
:101DF0000F920FB60F9211242F933F934F935F933F
:101E00006F937F938F939F93AF93BF93EF93FF93C2
:101E100080916F00897F80936F00809180008F7A1E
:101E20008093800080EC8093820080918600909166
:101E3000870020914B0430914C04820F931F9093A4
:101E4000890080938800809186009091870020917E
:101E5000470430914804820F931F90938B00809326
:101E60008A008091490490914A0490937103809371
:101E7000700380914504909146049093730380937E
:101E800072038091520481117AC080E02091510444
:101E900040E0222311F040E350E020918000842BA9
:101EA000822B8093800086E086BB80916F008660E5
:101EB00080936F0080918600909187002091740339
:101EC00030917503821B930B909302018093010163
:101ED000809186009091870090937503809374039E
:101EE0008091840090918500209188003091890034
:101EF000821B930B97FD03C080E880938200809142
:101F000084009091850020918A0030918B00821B83
:101F1000930B97FD03C080E48093820080910001C1
:101F2000882329F084E680936F031092000180914A
:101F30006F03815080936F0380916F0318161CF01C
:101F400084E680936F0390916F0380916E0360E04D
:101F500089170CF061E087E00E94B000FF91EF91DB
:101F6000BF91AF919F918F917F916F915F914F91B1
:101F70003F912F910F900FBE0F901F90189580ECFE
:101F800090E084CFCF93DF93EBE5F4E013821282ED
:101F900088EE93E0A0E0B0E084839583A683B783C6
:101FA0002AEA32E03183208325EC30E0358724872C
:101FB00024EC30E03787268720EC30E0318B208B13
:101FC00021EC30E0338B228B22EC30E0358B248BFC
:101FD00026EC30E0378B268B118E128E138E148EEA
:101FE000E8EFF4E01382128284839583A683B7839B
:101FF0008CEB92E09183808360E082E00E94FC00A1
:10200000E8EFF0E0E491A0E6B5E0EC93E4EEF0E078
:10201000E491F0E0EE0FFF1FE852FF4F859194919D
:1020200012969C938E9311971B961C921B971D964C
:102030001C921D971C961C921C971A961C921A971C
:1020400019961C92199718961C92189717961C921D
:10205000179716961C92169715961C92159714961C
:102060001C92149713961C921397EFE4F5E0B18736
:10207000A087128689E083871486158616861786C0
:10208000108AE4E4F5E088E6818380E090E0A0E84F
:10209000BFE382839383A483B583178216828FE87C
:1020A00080838CE291E09187808786E08287E0E3FD
:1020B000F5E02EEC32E03183208349E959E56CE10B
:1020C00075E4428353836483758380E090E0A3EEDC
:1020D000B3EC86839783A087B187338722874487B1
:1020E000558766877787808B918BA28BB38BC4E0F3
:1020F000D5E0198218821A821C821B828AE08F83A3
:102100001BA61AA66AE473E089E095E00E940B1909
:10211000188619A6DF91CF910895CF93DF93CDB79D
:10212000DEB72F970FB6F894DEBF0FBECDBF789401
:1021300084B5826084BD84B5816084BD85B58260CC
:1021400085BD85B5816085BD80916E00816080937D
:102150006E001092810080918100826080938100E6
:1021600080918100816080938100809180008160F6
:10217000809380008091B10084608093B100809151
:10218000B00081608093B00080917A008460809379
:102190007A0080917A00826080937A0080917A0040
:1021A000816080937A0080917A00806880937A00C1
:1021B0001092C100E0916B04F0916C0482E0808386
:1021C000E0916704F09168041082E0916904F09155
:1021D0006A0480E1808310927304E0916F04F091AF
:1021E000700486E08083E0916D04F0916E0480813C
:1021F00080618083E0916D04F0916E04808188603D
:102200008083E0916D04F0916E048081806880830A
:10221000E0916D04F0916E0480818F7D808387E072
:1022200098E0909308058093070563E27BE08CE4D7
:1022300093E00E94EB0A6BE47BE080E593E00E9470
:10224000EB0A60E679E084E593E00E94EB0A6BE13B
:1022500078E089E593E00E94EB0A6EE278E08EE593
:1022600093E00E94EB0A61E478E084E693E00E9448
:10227000EB0A10920C0510922D0580E991E09093E5
:10228000500480934F0480ED97E090934E04809328
:102290004D0489E29CE5AFE4BFE38093570490933B
:1022A0005804A0935904B0935A048AE999E9A9E122
:1022B000BEE38093530490935404A0935504B093C9
:1022C00056041092800082E88093810060E088E0EC
:1022D0000E94FC0080E286BB80936F0064EF71E097
:1022E00080E090E00E9452018AE00E946D0A89E03D
:1022F0000E946D0A10925B050E94A50981110E943F
:1023000081030E94A509882329F08CE080935A0557
:102310000E9481031092E3031092E2031092DF0304
:102320001092DE030E94310484E891E09093BD0393
:102330008093BC0385E891E09093BB038093BA033C
:1023400010924605109247051092480510924905D3
:1023500010924B0510924A058BE594E00E94E4012F
:10236000181619060CF061C08BE594E00E94C201BA
:102370000E94FA18182F80910B0518133AC04EE2EC
:1023800055E069E075E08CE095E00E948E146C01E8
:10239000892BE9F060900605712CE0900405F0901F
:1023A0000505B12CA12CA614B704D4F427014CE0E8
:1023B00050E0B701C6010E9412190FE0E00EF11CB7
:1023C000892B51F4D2011D96ED91FC910995109243
:1023D0000C0510922D05C0CFBFEFAB1ABB0AE3CF9F
:1023E000E0910705F0910805309789F3C60109953A
:1023F000EECF812F012E000C990B0E94F318892B30
:1024000009F4AACFE0912D05E03208F0A5CF81E0D4
:102410008E0F80932D05F0E0EC5FFA4F1087E82FC8
:10242000F0E0EC5FFA4F108697CF809157059091BE
:1024300058050E9449036CEC80915705909158050E
:102440000E94FD0264E480915705909158050E9416
:10245000FD0250E3E52E55E0F52E1B861A86D12CA1
:10246000C12C3324339465EC262E1091450530920F
:10247000E1031093E0031092DF031092DE038091DA
:1024800044056A857B85682B88EF94E00E94960559
:102490000091DE03013208F094C00E942D012B014F
:1024A0003C0180913F04811167C022E020933F04EA
:1024B00030921E043FEF30931D0410921C040093D1
:1024C0001B04EEEBF3E0A9EFB3E0081360C1109238
:1024D0001A0480911A04110F182B10931A0480917A
:1024E0001904813009F057C1109219040E942D017E
:1024F0002B013C0180911A048093BB008091410420
:1025000090914204A0914304B0914404892B8A2BFA
:102510008B2BA1F00E942D010091410410914204E7
:102520002091430430914404641975098609970980
:10253000061717072807390708F43FC08091BC0029
:1025400083FDD8CF2092BC000E942D012B013C01BD
:1025500080913F04823009F422C180911D048F3F95
:1025600081F180911D04803261F180911D0429C0A8
:10257000CC24C394D12C79CF809141049091420412
:10258000A0914304B0914404892B8A2B8B2B09F42E
:1025900088CF0E942D018090410490904204A09029
:1025A0004304B09044046419750986099709861696
:1025B0009706A806B90608F074CF809140040E94DF
:1025C0004F041092DF031092DE031092E1036CE2DD
:1025D00071E080E090E00E945201809144058C708F
:1025E0008C3009F0FEC064E0809145050E947004C3
:1025F0001092E3038093E20388EF94E00E944F057A
:10260000482E88EF94E00E944F05782E88EF94E0E2
:102610000E944F05442D440C550B660B770B762F0B
:10262000652F542F44278A01072928013B01762C66
:10263000652C542C4424482A88EF94E00E944F05CE
:10264000E82FA8EEB3E0A30192010E941418209194
:102650004E05E3702E0F3327331F2B013C0104C0BE
:1026600075946794579447942A95D2F7C301B201A1
:102670000E9420162091460530914705409148055B
:10268000509149050E9472174B015C0160914A0507
:1026900070914B05072E000C880B990B0E94201699
:1026A0009B01AC01C501B4010E94CB144B015C013C
:1026B00020E030E0A9010E94F71620E030E040E081
:1026C0005FE387FDA6C0C501B4010E94CB140E9440
:1026D000E8152091EC033091ED034091EE03509109
:1026E000EF032C873D874E875F87640D751D861D20
:1026F000971D0E9420162FE632E143E85AE30E941C
:102700007217AB01BC01D701ED91FC910480F581FA
:10271000E02D0C851D852E853F85C7010995C114C7
:10272000D10409F07BC06093E8037093E9038093C0
:10273000EA039093EB030A851B85005E1F4F1B87FE
:102740000A871AE0E10EF11CCA94CD2809F010CFD7
:102750000E94A50981116BC0C12CD12C9EEFE92EDE
:1027600092ECF92EC092EC03D092ED03E092EE03CE
:10277000F092EF0340E050E0452B09F4EDCD0E94CC
:10278000F001882309F4E8CD0E940000E5CD919185
:102790009D938F5F9ACE45EE4093BC00D5CE80913D
:1027A000410490914204A0914304B0914404892BC8
:1027B0008A2B8B2B09F4CCCE0E942D010091410471
:1027C0001091420420914304309144046419750926
:1027D00086099709061717072807390708F0B8CEA2
:1027E000ECCE63E0809145050E9470041092E303F3
:1027F0008093E20388EF94E00E944F05482E88EF13
:1028000094E00E944F05042C000C550866087708D8
:102810000ECFC501B4010E94CA1459CF6093E403DE
:102820007093E5038093E6039093E70384CF809150
:102830005B0580FF40C069E0CE0101960E94BD03A8
:1028400068E0CE0101960E9493029985891339C0F0
:1028500069817A81072E000C880B990B0E94201643
:1028600020E030E040E85DE30E9472176B017C01DC
:1028700020E030E04CE552EC0E94371587FD6CCF2C
:1028800040905C0550905D0560905E0570905F051E
:1028900020E030E0A901C301B2010E94371588236E
:1028A00009F460CFA3019201C701B6010E94CB14C5
:1028B0006B017C0157CF62E0CE0101960E94BD03FF
:1028C000C7CFC12CD12CE12C83ECF82E4BCF1F931A
:1028D000FC0199278827BC01E89411911032E9F393
:1028E000193010F01E30C8F31B3251F01D3249F47C
:1028F000689406C00E94B514610F711D811D911D61
:10290000119110531A30B0F33EF490958095709564
:1029100061957F4F8F4F9F4F1F910895FA01A191AD
:10292000B081009719F41097E1F0CD01DC01CD01E1
:102930000D90002011F4C00113C0FB01219122234E
:1029400019F02015D9F7F3CFFB012191201519F4C7
:102950001E92119606C02223C1F70D900020A1F708
:10296000D001FA01A193B0830895592F482F372F32
:10297000262F660F771F881F991F660F771F881FE6
:10298000991F620F731F841F951F660F771F881F83
:10299000991F08955058BB27AA270E94E2140C944F
:1029A000BD160E94AF1638F00E94B61620F039F41A
:1029B0009F3F19F426F40C9485160EF4E095E7FB7E
:1029C0000C947F16E92F0E94CE1658F3BA176207AF
:1029D00073078407950720F079F4A6F50C94F01698
:1029E0000EF4E0950B2EBA2FA02D0B01B90190012A
:1029F0000C01CA01A0011124FF27591B99F0593F6E
:102A000050F4503E68F11A16F040A22F232F342FB5
:102A10004427585FF3CF469537952795A795F04003
:102A20005395C9F77EF41F16BA0B620B730B840B18
:102A3000BAF09150A1F0FF0FBB1F661F771F881FD0
:102A4000C2F70EC0BA0F621F731F841F48F4879528
:102A500077956795B795F7959E3F08F0B0CF93951A
:102A6000880F08F09927EE0F9795879508950E9493
:102A70005B1608F481E008950E9450150C94BD1671
:102A80000E94B61658F00E94AF1640F029F45F3F3E
:102A900029F00C947F1651110C94F1160C948516A4
:102AA0000E94CE1668F39923B1F3552391F3951B39
:102AB000550BBB27AA2762177307840738F09F5F5F
:102AC0005F4F220F331F441FAA1FA9F335D00E2ECC
:102AD0003AF0E0E832D091505040E695001CCAF739
:102AE0002BD0FE2F29D0660F771F881FBB1F2617FC
:102AF00037074807AB07B0E809F0BB0B802DBF01D3
:102B0000FF2793585F4F3AF09E3F510578F00C94A1
:102B10007F160C94F1165F3FE4F3983ED4F386954C
:102B200077956795B795F7959F5FC9F7880F911DC2
:102B30009695879597F90895E1E0660F771F881FAE
:102B4000BB1F621773078407BA0720F0621B730B61
:102B5000840BBA0BEE1F88F7E095089529F416F060
:102B60000C947F160C94F0160C9485160E94D616C1
:102B7000A8F39638A0F707F80F92E8942BE33AEA07
:102B800048EB5FE70E9488170F920F920F924DB7A4
:102B90005EB70F920E943E17E8E6F0E00E948816AA
:102BA0004F915F91EF91FF91E595EE1FFF1F49F067
:102BB000FE57E0684427EE0F441FFA95E1F7419570
:102BC000550B0E9408170F9007FE0C94FC160895F1
:102BD0000E94EF156894B1110C94F11608950E94AB
:102BE000D61688F09F5798F0B92F9927B751B0F0B3
:102BF000E1F0660F771F881F991F1AF0BA95C9F781
:102C000014C0B13091F00E94F016B1E008950C9418
:102C1000F016672F782F8827B85F39F0B93FCCF3CB
:102C2000869577956795B395D9F73EF490958095FD
:102C3000709561957F4F8F4F9F4F0895E89409C01D
:102C400097FB3EF490958095709561957F4F8F4FDF
:102C50009F4F9923A9F0F92F96E9BB279395F695F5
:102C6000879577956795B795F111F8CFFAF4BB0F73
:102C700011F460FF1BC06F5F7F4F8F4F9F4F16C0D7
:102C8000882311F096E911C0772321F09EE8872F61
:102C9000762F05C0662371F096E8862F70E060E01D
:102CA0002AF09A95660F771F881FDAF7880F969596
:102CB000879597F90895990F0008550FAA0BE0E83A
:102CC000FEEF16161706E807F907C0F012161306EE
:102CD000E407F50798F0621B730B840B950B39F42E
:102CE0000A2661F0232B242B252B21F408950A2694
:102CF00009F4A140A6958FEF811D811D089597F9D4
:102D00009F6780E870E060E008959FEF80EC089591
:102D1000DF93CF931F930F93FF92EF92DF927B018C
:102D20008C01689406C0DA2EEF010E948517FE011F
:102D3000E894A5912591359145915591A6F3EF0120
:102D40000E94E214FE019701A801DA9469F7DF906E
:102D5000EF90FF900F911F91CF91DF910895002484
:102D60000A941616170618060906089500240A94F0
:102D700012161306140605060895092E0394000C76
:102D800011F4882352F0BB0F40F4BF2B11F460FF05
:102D900004C06F5F7F4F8F4F9F4F089557FD90582E
:102DA000440F551F59F05F3F71F04795880F97FB0F
:102DB000991F61F09F3F79F08795089512161306C9
:102DC0001406551FF2CF4695F1DF08C016161706F8
:102DD0001806991FF1CF869571056105089408952D
:102DE000E894BB2766277727CB0197F908950E94BF
:102DF0005B1608F48FEF08959B01AC0160E070E072
:102E000080E89FE30C943C150C947F160C94E41717
:102E10000E94D616D8F39923C9F3940F511DA3F33A
:102E20009150504094F059F0882332F0660F771F8C
:102E3000881F91505040C1F79E3F51052CF7880FD5
:102E4000911D9695879597F908955F3FACF0983E50
:102E50009CF0BB27869577956795B79508F4B16088
:102E60009395C1F7BB0F58F711F460FFE8CF6F5F80
:102E70007F4F8F4F9F4FE3CF0C94F116FA01DC0187
:102E8000AA0FBB1F9B01AC01BF5728F42227332791
:102E90004427507820C0B75190F4AB2F00244695BA
:102EA00037952795011CA395D2F3002071F0220FCE
:102EB000331F441FB395DAF30ED00C94CA1461305B
:102EC0007105A0E88A07B94630F49B01AC0166277A
:102ED000772788279078309621F0208331834283AA
:102EE000538308950E9485170C94BD160E94AF1657
:102EF00038F00E94B61620F0952311F00C947F163E
:102F00000C94851611240C94F1160E94CE1670F3C1
:102F1000959FC1F3950F50E0551F629FF001729F7E
:102F2000BB27F00DB11D639FAA27F00DB11DAA1F8D
:102F3000649F6627B00DA11D661F829F2227B00DDA
:102F4000A11D621F739FB00DA11D621F839FA00D65
:102F5000611D221F749F3327A00D611D231F849FB5
:102F6000600D211D822F762F6A2F11249F5750400C
:102F70009AF0F1F088234AF0EE0FFF1FBB1F661F87
:102F8000771F881F91505040A9F79E3F510580F050
:102F90000C947F160C94F1165F3FE4F3983ED4F343
:102FA000869577956795B795F795E7959F5FC1F7F4
:102FB000FE2B880F911D9695879597F908950E948D
:102FC0005B16880B990B08959F3F31F0915020F4C8
:102FD000879577956795B795880F911D96958795F5
:102FE00097F90895A1E21A2EAA1BBB1BFD010DC083
:102FF000AA1FBB1FEE1FFF1FA217B307E407F507A9
:1030000020F0A21BB30BE40BF50B661F771F881F84
:10301000991F1A9469F760957095809590959B011A
:10302000AC01BD01CF0108950E942518A59F900D08
:10303000B49F900DA49F800D911D11240895EE0F53
:10304000FF1F0590F491E02D0994A29FB001B39F5A
:10305000C001A39F700D811D1124911DB29F700DA1
:10306000811D1124911D0895B0E0A0E0EAE3F8E18C
:103070000C94591A8C01009751F4CB010E942F191E
:103080008C01C801CDB7DEB7E0E10C94751AFC01E4
:10309000E60FF71F9C0122503109E217F30708F4ED
:1030A0009DC0D901CD91DC911197C617D70798F033
:1030B000C530D10530F3CE0104978617970708F382
:1030C000C61BD70B2297C193D1936D937C93CF01ED
:1030D0000E94CB19D6CF5B01AC1ABD0A4C018C0EF5
:1030E0009D1EA0917005B0917105512C412CF12CC1
:1030F000E12C109731F580916E0590916F05881540
:10310000990509F05CC04616570608F058C0809132
:10311000030190910401009741F48DB79EB740914F
:10312000070150910801841B950BE817F90708F077
:1031300055C0F0936F05E0936E05F90171836083CC
:10314000A0CF8D919C91119712966C901297139627
:103150007C901397A815B90559F56C0142E0C40E8F
:10316000D11CCA14DB0420F1AC014A195B09DA0155
:103170001296159780F06282738251834083D90141
:103180006D937C93E114F10471F0D7011396FC93D5
:10319000EE93129776CF22968C0F9D1FF9019183A3
:1031A0008083F301EFCFF0937105E093700569CF51
:1031B0004816590608F42C017D01D3019ACFCB01A2
:1031C0000E942F197C01009749F0AE01B8010E94BE
:1031D0000219C8010E94CB19870153CF10E000E00B
:1031E00050CF803209F091110C94541A80528F55AF
:1031F000D8F708959111089581568A5108F48052A4
:1032000085580895FB01DC0102C001900D924150E8
:103210005040D8F70895FB01DC0101900D92002089
:10322000E1F70895FB01DC014150504030F08D91F1
:103230000190801919F40020B9F7881B990B0895A3
:10324000FB01DC014150504048F001900D920020FC
:10325000C9F701C01D9241505040E0F708950F9307
:103260001F93CF93DF938230910510F482E090E0BA
:10327000E0917005F091710530E020E0B0E0A0E051
:10328000309799F42115310509F44AC0281B390BF0
:1032900024303105D8F58A819B816115710589F14A
:1032A000FB0193838283FE0111C040815181028121
:1032B000138148175907E0F04817590799F41097F8
:1032C00061F012960C93129713961C933296CF01CD
:1032D000DF91CF911F910F91089500937005109386
:1032E0007105F4CF2115310551F04217530738F01D
:1032F000A901DB019A01BD01DF01F801C1CFEF0196
:10330000F9CF9093710580937005CDCFFE01E20F48
:10331000F31F819391932250310939832883D7CFAA
:1033200020916E0530916F05232B41F4209105010A
:103330003091060130936F0520936E0520910301B3
:10334000309104012115310541F42DB73EB740916C
:10335000070150910801241B350BE0916E05F09197
:103360006F05E217F307A0F42E1B3F0B2817390750
:1033700078F0AC014E5F5F4F2417350748F04E0FD1
:103380005F1F50936F0540936E05819391939FCF7C
:10339000F0E0E0E09CCFCF93DF930097E9F0FC01F1
:1033A000329713821282A0917005B0917105ED01E0
:1033B00030E020E01097A1F420813181820F931F2B
:1033C00020916E0530916F052817390709F061C00B
:1033D000F0936F05E0936E05DF91CF910895EA01B8
:1033E000CE17DF07E8F54A815B819E014115510543
:1033F000B1F7E901FB83EA8349915991C40FD51FC5
:10340000EC17FD0761F4808191810296840F951F6E
:10341000E90199838883828193819B838A83F0E089
:10342000E0E012968D919C9113970097B9F52D913C
:103430003C911197CD010296820F931F20916E054A
:1034400030916F052817390739F6309751F51092EA
:10345000710510927005B0936F05A0936E05BCCFF7
:10346000D383C28340815181840F951FC817D90728
:1034700061F44E5F5F4F88819981480F591F5183D6
:1034800040838A819B81938382832115310509F0D2
:10349000B0CFF0937105E09370059ECFFD01DC0184
:1034A000C0CF13821282D7CF9927882708952F92F1
:1034B0003F924F925F926F927F928F929F92AF92C4
:1034C000BF92CF92DF92EF92FF920F931F93CF9311
:1034D000DF93CDB7DEB7CA1BDB0B0FB6F894DEBFA8
:1034E0000FBECDBF09942A88398848885F846E84CE
:1034F0007D848C849B84AA84B984C884DF80EE8018
:10350000FD800C811B81AA81B981CE0FD11D0FB620
:10351000F894DEBF0FBECDBFED010895F894FFCF44
:1035200001204E000072058000204E1045A542ED9E
:1035300040893F593E4C3D583C793BA93AE6392EEB
:10354000397E38D73736379B3606367535E8345FDF
:1035500034DA335733D8325B32E0316731F1307CC3
:10356000300930982F282FB92E4B2EDF2D742D09BE
:103570002D9F2C372CCF2B672B002B9A2A342ACF48
:10358000296A290529A1283C28D82774271027ACA7
:10359000264826E4257F251B25B6245124EC2386C6
:1035A000232023B9225122E92181211721AC204176
:1035B00020D51F671FF81E881E171EA41D2F1DB9BA
:1035C0001C401CC51B481BC91A461AC1193819AB27
:1035D000181A188517EA164916A215F2143A147724
:1035E00013A712C811D410C70F970E330D7B0B1001
:1035F000090000000000000000000049CE03C340A5
:1036000063C9411CABC84179354142EB4895BF982D
:10361000F9A03D25B1D2BFAAAB8ABF0A2980BEDC82
:10362000D55F3DFDD165BFF64BAA3DDAFC7CBA669D
:1036300031BFBE7B3349BC22AD1337756CB1BDE3DE
:1036400080803AB89B05B3FC382BBC8C1839B80085
:103650000000004F1B08BA77F78D3500000000000E
:10366000000000A8DC34B20000000000000000BE32
:103670002E90BC7596213DD76B1F3DA928C637A853
:10368000AE9B37F068B0B46495D5B3C078ABB126C3
:103690000CAF2F397494AEBED41DAB809821AB17FC
:1036A000A02126D90460A75804BDA054CC40A3A6ED
:1036B000E5EA1A4CD9BB9E3BC26F940BDD9D990085
:1036C0000000003F5F7F0000000026028601B3017A
:1036D0007302E401C201D6010000000096056905ED
:1036E000C5053F0562054F054005000000000E07B7
:1036F0008006E606AD06070CC8055806300601062A
:103700000D0A00556E7265636F676E697A65642095
:10371000617267756D656E743A2000232041637491
:10372000697665206368616E6E656C73207365747D
:1037300020746F20002320556E69747320736574A4
:1037400020746F2000232046696C742073657420F8
:10375000746F20006E616E00696E66006F766600A1
:10376000302E302C002C35352C003B0050575200A9
:1037700046414E0052454144004348414E00554E9B
:0A3780004954530046494C54000020
:00000001FF
