:020000040000FA
:100000000C9486000C94AE000C94AE000C94AE00E0
:100010000C94AE000C94AE000C94AE000C94AE00A8
:100020000C94AE000C94AE000C94DB0E0C94A20E5B
:100030000C94690E0C94AE000C94AE000C94AE00BF
:100040000C94A80C0C94AE000C94180D0C94F20CAB
:100050000C94AE000C94AE000C94AE000C94AE0068
:100060000C944A0D0C94AE0007634236B79BD8A798
:100070001A39685618AEBAAB558C1D3CB7CC5763CD
:10008000BD6DEDFD753EF6177231BF000000803F7B
:10009000005EBCE2613FDD83C29C7E20A3FD1F4168
:1000A000009D23BE46DB65F88C11AF32CA57E97458
:1000B00000000000240027002A00000000002500A6
:1000C00028002B00000000080002010000030407C4
:1000D00000000000000000000000000023002600D7
:1000E00029000404040404040404020202020202BB
:1000F00003030303030301020408102040800102EC
:1001000004081020010204081020A60F11241FBEAD
:10011000CFEFD8E0DEBFCDBF13E0A0E0B1E0E8ED67
:10012000F4E302C005900D92A036B107D9F725E09F
:10013000A0E6B3E001C01D92A836B207E1F710E0D7
:10014000C6E8D0E004C02197FE010E94FB17C53825
:10015000D107C9F70E9471100C946A1A0C94000020
:1001600090E0FC01EC53FF4F2491FC01EA50FF4F5B
:100170003491FC01EE51FF4FE491EE23C9F02223AC
:1001800039F0233001F1A8F4213019F1223029F19E
:10019000F0E0EE0FFF1FE654FF4FA591B4918FB72B
:1001A000F894EC91611126C030953E233C938FBFAB
:1001B00008952730A9F02830C9F0243049F78091FC
:1001C00080008F7D03C0809180008F7780938000B6
:1001D000DFCF84B58F7784BDDBCF84B58F7DFBCF38
:1001E0008091B0008F778093B000D2CF8091B00023
:1001F0008F7DF9CF3E2BDACFCF93DF9390E0FC01D8
:10020000EA50FF4F24918E519F4FFC018491882327
:10021000D1F090E0880F991FFC01E055FF4FA591A8
:10022000B491FC01E654FF4FC591D49161110EC009
:100230009FB7F8948C91E22FE0958E238C932881C0
:10024000E223E8839FBFDF91CF9108958FB7F894A1
:10025000EC91E22BEC938FBFF6CF3FB7F8948091EF
:10026000EB039091EC03A091ED03B091EE0326B562
:10027000A89B05C02F3F19F00196A11DB11D3FBFDE
:10028000BA2FA92F982F8827BC01CD01620F711DAD
:10029000811D911D42E0660F771F881F991F4A95A7
:1002A000D1F708958F929F92AF92BF92CF92DF9233
:1002B000EF92FF924B015C010E942D016B017C01CA
:1002C0000E942D016C197D098E099F09683E7340BB
:1002D00081059105A8F321E0821A9108A108B108CF
:1002E00088EEC80E83E0D81EE11CF11C8114910435
:1002F000A104B10429F7FF90EF90DF90CF90BF9059
:10030000AF909F908F90089508950895AF92BF92F7
:10031000CF92DF92EF92FF920F931F93CF93DF93D1
:100320006C017B018B01040F151FEB015E01AE1800
:10033000BF08C017D10759F06991D601ED91FC9122
:100340000190F081E02DC6010995892B79F7C5014F
:10035000DF91CF911F910F91FF90EF90DF90CF90A1
:10036000BF90AF900895FC01538D448D252F30E050
:10037000842F90E0821B930B541710F0CF960895B2
:1003800001970895FC01918D828D981761F0A28DDF
:10039000AE0FBF2FB11D5D968C91928D9F5F9F73A5
:1003A000928F90E008958FEF9FEF0895FC01918D5B
:1003B000828D981731F0828DE80FF11D858D90E0C8
:1003C00008958FEF9FEF0895FC01918D228D892F65
:1003D00090E0805C9F4F821B91098F73992708954D
:1003E00081E594E00E94E40121E0892B09F420E0FA
:1003F000822F089580E090E0892B29F00E94F0017F
:1004000081110C9400000895FC01A48DA80FB92F50
:10041000B11DA35ABF4F2C91848D90E001968F732C
:100420009927848FA689B7892C93A089B1898C914B
:10043000837080648C93938D848D981306C002889A
:10044000F389E02D80818F7D80830895EF92FF9264
:100450000F931F93CF93DF93EC0181E0888F9B8DE7
:100460008C8D98131AC0E889F989808185FF15C0A1
:100470009FB7F894EE89FF896083E889F9898081C4
:100480008370806480839FBF81E090E0DF91CF9193
:100490001F910F91FF90EF900895F62E0B8D10E0B5
:1004A0000F5F1F4F0F731127E02E8C8D8E110CC024
:1004B0000FB607FCFACFE889F989808185FFF5CF6F
:1004C000CE010E940402F1CFEB8DEC0FFD2FF11D48
:1004D000E35AFF4FF0829FB7F8940B8FEA89FB89AC
:1004E00080818062CFCFCF93DF93EC01888D88230A
:1004F000B9F0AA89BB89E889F9898C9185FD03C087
:10050000808186FD0DC00FB607FCF7CF8C9185FF6B
:10051000F2CF808185FFEDCFCE010E940402E9CFAA
:10052000DF91CF910895DC0180E0615090F09D91C2
:100530009827E92FEF70F0E0E057FF4F2491E92F63
:10054000E295EF70F0E0E056FF4FE491822F8E27A6
:10055000ECCF0895DC012C911196ED91FC91F8946B
:100560008181822B81839281322F309593239283D4
:1005700087E090E00197F1F781818323818383E213
:1005800090E00197F1F790817894EFECF0E03197EB
:10059000F1F7922381E009F480E00895FC01908155
:1005A0000180F281E02D292F209560FF14C0F8947E
:1005B0008281822382838181892B8183A3E2B0E0BF
:1005C0001197F1F78281982B9283789487ED90E0D0
:1005D0000197F1F70895F8948281822382838181C3
:1005E000892B8183AFEFB0E01197F1F78281982BCF
:1005F000928378948FE090E0EBCFEF92FF920F938D
:100600001F93CF93DF93EC01E62E08E010E0FF2468
:10061000F39461E08E2D8F2109F460E0CE010E94F9
:10062000CE02FF0C01501109A1F7F894E981FA817B
:1006300091818881809589238183E981FA819281E2
:1006400088818095892382837894DF91CF911F914F
:100650000F91FF90EF900895EF92FF920F931F93E9
:10066000CF93DF938C017B0165E50E94FD02E701DA
:1006700088E0E80EF11C6991C8010E94FD02CE15C8
:10068000DF05C9F7DF91CF911F910F91FF90EF9098
:100690000895FC0190810180F281E02DF894818120
:1006A000292F20958223818378943DE743E050E011
:1006B000315029F1DA011197F1F780818923C1F3D3
:1006C000F8948281822382838181892B818378942B
:1006D000ABE7B7E01197F1F7F8948181822381832A
:1006E000A3E1B1E01197F1F78081982381E009F04F
:1006F00080E07894E3E6F6E03197F1F7089580E042
:100700000895CF93E0915005EA50CFE1E33020F413
:10071000F0E0ED55FD4FC08180914D0590914E0563
:100720000E94490365E475E080914D0590914E0566
:100730000E942C036EE480914D0590914E050E941D
:10074000FD0260E080914D0590914E050E94FD02F2
:1007500064E680914D0590914E050E94FD026C2F3C
:1007600080914D0590914E050E94FD0280914D05AE
:1007700090914E05CF910C944903AF92BF92CF92C6
:10078000DF92EF92FF920F931F93CF93DF93182F77
:10079000092FD62E80914D0590914E050E94490358
:1007A00065E475E080914D0590914E050E942C0303
:1007B0006EEB80914D0590914E050E94FD02C12E79
:1007C000C12FD02FA0904D05B0904E0588E0E82EA7
:1007D000F12C10E001E0C5010E94AA028111102B4A
:1007E000000F81E0E81AF108B1F719938C2F8C19EA
:1007F0008D1540F380914D0590914E05DF91CF917D
:100800001F910F91FF90EF90DF90CF90BF90AF902E
:100810000C94490320918D03260F3327331F213277
:100820003105ECF420913504FC0190E080E02430A7
:1008300069F082E00895A0918D032191AC014359A4
:100840005C4FA40FB52FB11D2C930196861798F31A
:1008500080918D03680F60938D0380E0089581E09F
:1008600008951092350481E08093140410920F04CF
:1008700061E082E10E94B00061E083E10E94B0008B
:10088000E9EBF0E080818E7F808380818D7F8083A3
:1008900088E48093B80085E48093BC000895CF93EA
:1008A000DF9391E090936C038823B9F0C091B80076
:1008B000D091BA008091BC008A7B8093BC0060E03C
:1008C00082E10E94B00060E083E10E94B0000E94DB
:1008D0003104D093BA00C093B800DF91CF9108954E
:1008E000CF92DF92EF92FF920F931F93CF93DF93FC
:1008F000D82FC62F613208F098C00E942D016B01DD
:100900007C018091350481116BC081E080933504B6
:10091000809314049FEF90931304109212049C0F81
:10092000909311048093100480911004DD0FD82B54
:10093000D093100480910F04813009F078C0109298
:100940000F040E942D016B017C01809110048093A3
:10095000BB008091370490913804A0913904B09184
:100960003A04892B8A2B8B2BA1F00E942D01009138
:100970003704109138042091390430913A046C19ED
:100980007D098E099F09061717072807390708F4FC
:1009900048C08091BC0083FDD8CF85EC8093BC001B
:1009A0000E942D016B017C0180913504813009F496
:1009B00040C0809112048C1710F4C0911204EFEE25
:1009C000F3E0A5E1B4E080E08C1355C08C2FDF91FB
:1009D000CF911F910F91FF90EF90DF90CF900895EE
:1009E0008091370490913804A0913904B0913A0471
:1009F000892B8A2B8B2B09F484CF0E942D01009127
:100A00003704109138042091390430913A046C195C
:100A10007D098E099F09061717072807390708F06F
:100A200070CF809136040E944F04C0E0CFCF85EE96
:100A3000B5CF8091370490913804A0913904B091DA
:100A40003A04892B8A2B8B2B09F4AECF0E942D01FF
:100A500000913704109138042091390430913A0400
:100A60006C197D098E099F09061717072807390792
:100A700008F09ACFD6CF91919D938F5FA5CF08951F
:100A8000E091D9038091D803E81730F4F0E0EB5EF1
:100A9000FB4F808190E008958FEF9FEF0895909134
:100AA000D9038091D8032FEF3FEF981748F4E92F2F
:100AB000F0E0EB5EFB4F208130E09F5F9093D90325
:100AC000C90108958091D8039091D903891B990B8E
:100AD0000895CF92DF92EF92FF920F931F93CF93DF
:100AE000DF937C01CB018A012091D703222389F077
:100AF000EB016B01C40ED51ECC15DD0569F06991C3
:100B0000D701ED91FC910190F081E02DC70109958D
:100B1000F3CF642F0E940A04C801DF91CF911F9187
:100B20000F91FF90EF90DF90CF900895CF93DF93D8
:100B30001F92CDB7DEB769832091D7032223F9F046
:100B40002091D403203258F021E030E0FC013383BF
:100B5000228390E080E00F90DF91CF910895809103
:100B6000D503E82FF0E0EC54FC4F998190838F5F20
:100B70008093D5038093D40381E090E0ECCF61E0D3
:100B8000CE0101960E940A04F7CF90E080E008951C
:100B9000CF92DF92EF92FF92CF93DF93EC016A0145
:100BA0007B01E881F9810088F189E02D099588238E
:100BB000E9F020E030E040E052E4C701B6010E94D5
:100BC000A61426E636E646EE5FE30E941815AB0152
:100BD000BC01E881F9810084F185E02DCE01DF912F
:100BE000CF91FF90EF90DF90CF90099460E87FE481
:100BF00083EC97ECDF91CF91FF90EF90DF90CF9057
:100C00000895CF92DF92EF92FF920F931F93CF93AD
:100C1000DF938C016A017B01D1E0AB019601FC01FD
:100C200066817781808591850E94131518160CF4D2
:100C3000D0E0C1E0A7019601F8016281738184814F
:100C400095810E94D31687FDC0E08D2F8C23DF9104
:100C5000CF911F910F91FF90EF90DF90CF9008956B
:100C6000CF92DF92EF92FF92CF93DF936A017B01E5
:100C7000D1E020E030E047E853ECCB01B6010E9420
:100C8000D31687FDD0E0C1E020E030E84BEA54E421
:100C9000C701B6010E94131518160CF4C0E08D2F81
:100CA0008C23DF91CF91FF90EF90DF90CF9008954C
:100CB000CF92DF92EF92FF92CF93DF936A017B0195
:100CC000D1E022E133E84CEB50ECCB01B6010E94BD
:100CD000D31687FDD0E0C1E024E43BE84BE552E4C5
:100CE000C701B6010E94131518160CF4C0E08D2F31
:100CF0008C23DF91CF91FF90EF90DF90CF900895FC
:100D0000CF92DF92EF92FF92DC01ED91FC91019086
:100D1000F081E02D09956B017C0120E83FE443EC74
:100D200057EC0E941315882399F026E636E646EE26
:100D30005FE3C701B6010E944E1720E030E040E0BB
:100D400052E40E94A714FF90EF90DF90CF90089597
:100D500060E87FE483EC97ECF6CFCF92DF92EF92DE
:100D6000FF920F931F93CF93DF93EC016A017B01F6
:100D7000C901B80120E030E040E052E40E94A6142E
:100D800026E636E646EE5FE30E9418158B019C01CD
:100D9000E881F9810480F581E02DB701A601CE013B
:100DA000099526E636E646EE5FE30E944E1720E000
:100DB00030E040E052E40E94A714DF91CF911F91F0
:100DC0000F91FF90EF90DF90CF900895CF92DF9238
:100DD000EF92FF920F931F93CF93DF93EC016A0181
:100DE0007B01B901A801E881F9810084F185E02D3A
:100DF0000995A70196010E94A714AB01BC01E881E7
:100E0000F9810190F081E02DCE01DF91CF911F910A
:100E10000F91FF90EF90DF90CF9009944F925F92E7
:100E20006F927F928F929F92AF92BF92CF92DF92FA
:100E3000EF92FF920F931F93CF93DF932A013B0111
:100E4000DC01ED91FC910484F585E02D0995882362
:100E500009F471C020E030E0A901C301B2010E9491
:100E6000D316D0E0C0E087FD0EC001E010E029EE0F
:100E700036E245EA51E4C301B2010E941315181687
:100E80000CF400E0E80129EE36E245EA51E4C30142
:100E9000B2010E94D31687FD0CC024E43BE84BE569
:100EA00052E4C301B2010E941315181614F0C2E0F7
:100EB000D0E0CC0FDD1FCC0FDD1FCD52DE4FC12C9B
:100EC000D12C7601812C912C20E8A22E2FE3B22E7A
:100ED00010E000E0288139814A815B81C501B401BD
:100EE0000E944E179B01AC01C701B6010E94A714D6
:100EF0006B017C01A3019201C501B4010E944E1750
:100F00004B015C010F5F1F4F2C960A30110511F742
:100F1000C701B601DF91CF911F910F91FF90EF9024
:100F2000DF90CF90BF90AF909F908F907F906F9009
:100F30005F904F90089580E8C82E8FE4D82E83EC00
:100F4000E82E87ECF82EE4CFFC0101900020E9F7B1
:100F50003197AF01481B590BBC0181E594E00C941B
:100F600086018F929F92AF92BF920F931F93CF9360
:100F7000DF93CDB7DEB7A1970FB6F894DEBF0FBEF3
:100F8000CDBF19A2423008F44AE08E010F5D1F4F19
:100F9000842E912CB12CA12CA50194010E94CE1776
:100FA000E62FB901CA01EA30F4F4E05DD801EE930E
:100FB0008D01232B242B252B79F790E080E01097CF
:100FC00019F0CD010E94A407A1960FB6F894DEBFD8
:100FD0000FBECDBFDF91CF911F910F91BF90AF900A
:100FE0009F908F900895E95CE1CFCF93DF93D0E09D
:100FF000C0E0009719F00E94A407EC0180EE92E097
:101000000E94A4078C0F9D1FDF91CF910895CF936D
:10101000DF93EC0183EE92E00E94A407CE01DF9102
:10102000CF910C94F5074F925F926F927F928F92BF
:101030009F92AF92BF92CF92DF92EF92FF920F9367
:101040001F93CF936B017C01742EAC019B010E9416
:10105000BB17882399F08BEF92E0CF911F910F91EE
:10106000FF90EF90DF90CF90BF90AF909F908F90C8
:101070007F906F905F904F900C94A40746015701AA
:10108000E894B7F82FEF3FEF4FE75FE7C501B401F2
:101090000E94BB1781110DC02FEF3FEF4FE75FE7B5
:1010A000C501B4010E94131518161CF48FEF92E0CD
:1010B000D4CF2FEF3FEF4FE75FE4C701B6010E94A7
:1010C000D31618161CF483E093E0C7CF2FEF3FEF41
:1010D0004FE75FECC701B6010E94131587FDF3CF00
:1010E00020E030E0A901C701B6010E94131510E00D
:1010F00000E087FF0AC06DE281E594E00E942602CD
:101100008C01F7FAF094F7F8F094C0E060E070E03A
:1011100080E09FE37C1641F020E030E040E251E4C3
:101120000E941815CF5FF6CFA70196010E94A71461
:101130002B013C010E94CB154B015C014AE00E944F
:10114000B1077C01E00EF11ECC23C1F1C501B40151
:101150000E94FA159B01AC01C301B2010E94A614C2
:101160004B015C016EE281E594E00E942602E80EEC
:10117000F91EC15018F120E030E040E251E4C50111
:10118000B4010E944E172B013C010E94CB154B016C
:10119000B12CA12C4AE0C501B4010E94B107E80EB0
:1011A000F91EC501B4010E94FA159B01AC01C301EF
:1011B000B2010E94A6144B015C01DBCFC701CF91A5
:1011C0001F910F91FF90EF90DF90CF90BF90AF9065
:1011D0009F908F907F906F905F904F900895CF92E7
:1011E000DF92EF92FF92CF93DF936C01990FEE089D
:1011F000FF08F7FE19C06DE281E594E00E94260227
:10120000EC0166277727CB016C197D098E099F09B0
:101210004AE00E94B1078C0F9D1FDF91CF91FF9094
:10122000EF90DF90CF9008954AE0C701B601DF91BB
:10123000CF91FF90EF90DF90CF900C94B10787E0B3
:1012400093E00E94A4076091DE037091DF03809118
:10125000E0039091E10341E00E9413088AE093E0EB
:101260000E94A4076091DA037091DB038091DC0394
:101270009091DD0341E00E9413088AE093E00E9410
:10128000A40780916203909163030E94EF088AE0B3
:1012900093E00E94A40780916003909161030E94F3
:1012A000EF088CE093E00E94A4076091E203709144
:1012B000E3038091E4039091E50341E00E94130869
:1012C00080EE92E00C94A407AF92BF92CF92DF928F
:1012D000EF92FF920F931F93CF93DF9310924F05DE
:1012E00083E0B82EAA24A394D0904F05D11035C026
:1012F00080914D0590914E050E944903E0914D0566
:10130000F0914E0513861586148612861186108676
:101310001782168215821482138210924505C0919D
:101320004D05D0914E058D85882321F11B861D86A4
:101330001C8680914505882359F067E085E495E097
:101340000E949302DD24D39490914C059813D12CE4
:10135000D0924F05BA94B110C7CF80914F05DF915D
:10136000CF911F910F91FF90EF90DF90CF90BF90A2
:10137000AF900895CE010E9449038823B9F260EF2F
:10138000CE010E94FD0201E0E12CC12C11E0CE0152
:101390000E94AA02F82ECE010E94AA0291E0F91240
:1013A00018C0813099F5113408F4C0CFCB86C11034
:1013B00001C0AD868B81882309F4B8CFFE01339636
:1013C000A5E4B5E02B9681918D93CE17DF07D9F771
:1013D000B0CFEE2DF0E0F8120FC08B851817A0F4F7
:1013E000DE01AE0FBF1F13968C91802379F4F12C90
:1013F000193008F41C87C12EEC0FFD1F8381902F3C
:101400009095892383830AC08113F1CFFE01EE0DED
:10141000F11D8381802B8383FF24F3946F2DCE01F4
:101420000E94CE021F5F000F11F4E39401E087E0F9
:101430008E1508F0ACCFB7CF893041F41092480434
:10144000809180008F7B80938000089510924704E4
:10145000809180008F7EF7CFCF93C82F20E030E0BF
:10146000A90160914D0470914E0480914F049091B8
:1014700050040E94131561E087FD10C020E030E0A9
:10148000A9016091490470914A0480914B049091A4
:101490004C040E94D316181664F460E08C2F0E944E
:1014A000B0008C2F0E941C0A61E08C2FCF910C940D
:1014B000FC008FB7C93039F5F89440910101509183
:1014C00002018FBF8091450490914604840F951FBF
:1014D00020914304309144048217930728F09A0125
:1014E0008417950708F49C018FB7F8945093420431
:1014F000409341043093400420933F048FBF81E028
:1015000080934804D1CFF894409101015091020199
:101510008FBF8091450490914604840F951F2091C0
:101520004304309144048217930728F09A018417EA
:10153000950708F49C018FB7F89450933E044093AC
:101540003D0430933C0420933B048FBF81E08093A3
:101550004704AACFDF92EF92FF920F931F93CF938E
:10156000DF937C018B01CAEFD4E08A8190E0019681
:101570002FE0D22ED89EB001D99E700D1124888103
:1015800099810E941018998388832A814CE050E049
:10159000B7012D9D800D911D11240E94FC188A8198
:1015A000E881F9818D9DE00DF11D112416870587D5
:1015B0008F5F8A83DF91CF911F910F91FF90EF9002
:1015C000DF900895CF93DF9344E255E06FEF74E02E
:1015D00090E080E00E946A14EC01892B49F081E1DF
:1015E00093E00E94A407CE01DF91CF910C94F50700
:1015F000DF91CF910895CF93DF9344E255E06FEFF1
:1016000074E090E080E00E946A140097F9F00E9474
:101610004314C0E097FD0CC0DC01CB018536910579
:10162000A105B10524F084E690E0A0E0B0E0C82F69
:10163000C093640381E08093000161E087E00E9431
:10164000FC00D0E0D0936303C0936203DF91CF919D
:1016500008950F931F93CF9344E255E06FEF74E02A
:1016600090E080E00E946A140097A1F10E94431468
:10167000C0E097FD0CC0DC01CB0185369105A105CA
:10168000B10524F084E690E0A0E0B0E0C82F0C2F74
:1016900010E020E030E048EC52E460914D0470919D
:1016A0004E0480914F04909150040E944E170E9466
:1016B000CB156C1798F461E08AE00E94B0008AE0D4
:1016C0000E941C0A61E08AE00E94FC001093610302
:1016D00000936003CF911F910F91089520E030E0B7
:1016E00048EC52E46091490470914A0480914B04A3
:1016F00090914C040E944E170E94CB15C61710F40F
:1017000060E0DACFF801EE0FFF1FE75FFE4F408188
:10171000518148515C4F8FB7F894609101017091ED
:1017200002018FBF2091450430914604240F351FDC
:1017300080914304909144042817390728F0CB0185
:101740002617370708F4C9012FB7F89450933E04C1
:1017500040933D0490933C0480933B042FBF81E071
:1017600080934704AFCF85ED8093BC008091370410
:1017700090913804A0913904B0913A040796A11DC4
:10178000B11D23E0B695A795979587952A95D1F732
:101790002091BC0024FD03C01092350408954091AF
:1017A0003704509138046091390470913A04452B04
:1017B000462B472B69F30097A105B10541F02AE2BA
:1017C0002A95F1F700C00197A109B109E1CF8091F5
:1017D00036040C944F044F925F926F927F928F92D7
:1017E0009F92AF92BF92CF92DF92EF92FF920F93B0
:1017F0001F93CF93DF936A017B01DC01ED91FC9194
:101800000684F785E02D0995882309F498C020E027
:1018100030E047E853ECC701B6010E94D316CBE491
:10182000D2E087FD42C020E030E0A901C701B60147
:101830000E9413151816CCF1812C912C5401412CC7
:10184000512C20E8622E2FE3722E288139814A81A3
:101850005B81C301B2010E944E179B01AC01C5011F
:10186000B4010E94A7144B015C01A7019601C301BA
:10187000B2010E944E172B013C012896B2E0C33AF8
:10188000DB0719F7C501B401DF91CF911F910F91CB
:10189000FF90EF90DF90CF90BF90AF909F908F9090
:1018A0007F906F905F904F9008950BE912E0812C2C
:1018B000912C90E8A92E9FE3B92E412C512C320196
:1018C0002C813D814E815F81C501B4010E944E177C
:1018D0009B01AC01C301B2010E94A7142B013C0182
:1018E000A7019601C501B4010E944E174B015C018E
:1018F00028960C171D0721F72CEE3FEE4DEF52E412
:10190000C701B6010E94A6146B017C0126E03FE2EC
:1019100048EF58EB0E944E17A70196010E944E1700
:101920000E9492152CE433EE42EF5DE30E944E17C5
:10193000A30192010E94A7144B015C01A3CF80E890
:10194000882E8FE4982E83ECA82E87ECB82E9ACFA1
:101950001F920F920FB60F9211242F933F938F93E4
:101960009F93AF93BF938091E7039091E803A09179
:10197000E903B091EA033091E60323E0230F2D370A
:1019800058F50196A11DB11D2093E6038093E7034E
:101990009093E803A093E903B093EA038091EB03EB
:1019A0009091EC03A091ED03B091EE030196A11D7F
:1019B000B11D8093EB039093EC03A093ED03B093E0
:1019C000EE03BF91AF919F918F913F912F910F9017
:1019D0000FBE0F901F90189526E8230F0296A11DA9
:1019E000B11DD2CF1F920F920FB60F9211242F93D9
:1019F0003F934F935F936F937F938F939F93AF9397
:101A0000BF93EF93FF9381E594E00E940402FF915E
:101A1000EF91BF91AF919F918F917F916F915F9166
:101A20004F913F912F910F900FBE0F901F901895DF
:101A30001F920F920FB60F9211242F938F939F93A3
:101A4000EF93FF93E0916104F09162048081E09153
:101A50006704F091680482FD1BC0908180916A0444
:101A60008F5F8F7320916B04821741F0E0916A04BD
:101A7000F0E0EF5AFB4F958F80936A04FF91EF914E
:101A80009F918F912F910F900FBE0F901F901895DF
:101A90008081F4CF1F920F920FB60F9211242F93D3
:101AA0003F934F935F936F937F938F939F93AF93E6
:101AB000BF93EF93FF938091B900887F803609F43C
:101AC0004AC0F0F5883209F4A7C018F5803109F44E
:101AD0009BC0B8F4882309F4F9C0883009F494C095
:101AE000FF91EF91BF91AF919F918F917F916F91F6
:101AF0005F914F913F912F910F900FBE0F901F90CC
:101B00001895883109F488C0803251F78093130406
:101B100014C0803409F49DC040F48033B9F3883395
:101B2000F9F68093130485ECB0C0803509F485C0C4
:101B3000883509F496C0883499F60E94B30BD0CF4B
:101B4000883909F48CC038F5883729F050F4883684
:101B500011F0803729F683E0809335041092AF03AB
:101B600057C0883809F47BC0803919F0803809F0F3
:101B7000B7CF8091AF03803208F071C0E091AF031E
:101B800081E08E0F8093AF038091BB00F0E0E157BE
:101B9000FC4F80833DC0803B39F0E0F4803A09F48B
:101BA00079C0883A09F09CCF84E080933504109284
:101BB0008E0310928D03E091B203F091B303099567
:101BC00080918D0381110FC081E080938D0310926D
:101BD0006D0309C0803C09F4A6CF883C09F4A3CF6B
:101BE000883B09F07DCFE0918E0381E08E0F8093DA
:101BF0008E03F0E0E359FC4F80818093BB0090910D
:101C00008E0380918D0329C0809110048093BB00C6
:101C100085EC8093BC0064CF9091120480911104F4
:101C2000981758F5E091120481E08E0F809312040A
:101C3000F0E0E151FC4F8081E9CFE091120481E0B6
:101C40008E0F809312048091BB00F0E0E151FC4FB5
:101C5000808390911204809111049817C8F285E84E
:101C6000D8CFE091120481E08E0F8093120480910E
:101C7000BB00F0E0E151FC4F80838091140481119E
:101C80005CCF81E080930F0484EA8093BC001092C3
:101C9000350426CF85EC8093BC00109235048091EA
:101CA000AF03803230F4E091AF03F0E0E157FC4F36
:101CB00010826091AF0370E0E091B003F091B10346
:101CC0008FE893E009951092AF030ACF10921304A6
:101CD00034CF1F920F920FB60F9211242F933F9380
:101CE0008F939F9380916F008B7F80936F00809183
:101CF00080008F7E809380008091680390916903BB
:101D000020916A0330916B03820F931F90938B0095
:101D100080938A00809184009091850020918A00B0
:101D200030918B00821B930B97FD03C080E480935E
:101D300082009F918F913F912F910F900FBE0F9036
:101D40001F9018951F920F920FB60F9211242F9388
:101D50003F938F939F9380916F008D7F80936F004F
:101D6000809180008F7B80938000809166039091AA
:101D7000670320916A0330916B03820F931F909346
:101D80008900809388008091840090918500209143
:101D9000880030918900821B930B97FD03C080E877
:101DA000809382009F918F913F912F910F900FBE52
:101DB0000F901F9018951F920F920FB60F9211243B
:101DC0002F933F934F935F936F937F938F939F9343
:101DD000AF93BF93EF93FF9380916F00897F8093C0
:101DE0006F00809180008F7A8093800080EC8093D8
:101DF000820080918600909187002091410430916B
:101E00004204820F931F90938900809388008091F1
:101E100086009091870020913D0430913E04820F0E
:101E2000931F90938B0080938A0080913F04909140
:101E30004004909367038093660380913B049091E4
:101E40003C04909369038093680380914804811156
:101E50007AC080E02091470440E0222311F040E363
:101E600050E020918000842B822B8093800086E0BC
:101E700086BB80916F00866080936F0080918600A2
:101E80009091870020916A0330916B03821B930B22
:101E900090930201809301018091860090918700C8
:101EA00090936B0380936A038091840090918500E6
:101EB0002091880030918900821B930B97FD03C00D
:101EC00080E8809382008091840090918500209129
:101ED0008A0030918B00821B930B97FD03C080E436
:101EE0008093820080910001882329F084E680930A
:101EF0006503109200018091650381508093650312
:101F00008091650318161CF084E680936503909118
:101F100065038091640360E089170CF061E087E05D
:101F20000E94B000FF91EF91BF91AF919F918F916F
:101F30007F916F915F914F913F912F910F900FBEC5
:101F40000F901F90189580EC90E084CFCF93DF9393
:101F5000E1E5F4E01382128288EE93E0A0E0B0E0C5
:101F600084839583A683B7832AEA32E03183208372
:101F700025EC30E03587248724EC30E0378726874E
:101F800020EC30E0318B208B21EC30E0338B228B46
:101F900022EC30E0358B248B26EC30E0378B268B1F
:101FA000118E128E138E148EEEEEF4E013821282D6
:101FB00084839583A683B7838CEB92E0918380839F
:101FC00060E082E00E94FC00E8EFF0E0E491A6E52A
:101FD000B5E0EC93E4EEF0E0E491F0E0EE0FFF1FEB
:101FE000E852FF4F8591949112969C938E9311978E
:101FF0001B961C921B971D961C921D971C961C925B
:102000001C971A961C921A9719961C921997189653
:102010001C92189717961C92179716961C92169753
:1020200015961C92159714961C92149713961C9251
:102030001397E5E4F5E0B187A087128689E08387EE
:102040001486158616861786108AEAE3F5E088E678
:10205000818380E090E0A0E8BFE382839383A48340
:10206000B583178216828FE880838CE291E0918796
:10207000808786E08287E6E2F5E02EEC32E031836D
:10208000208349E959E56CE175E442835383648315
:10209000758380E090E0A3EEB3EC86839783A087FE
:1020A000B187338722874487558766877787808BF8
:1020B000918BA28BB38BCAEFD4E0198218821A825B
:1020C0001C821B828AE08F831BA61AA66BE273E038
:1020D0008FEF94E00E94E718188619A6DF91CF9140
:1020E0000895CF93DF93CDB7DEB72F970FB6F8944F
:1020F000DEBF0FBECDBF789484B5826084BD84B549
:10210000816084BD85B5826085BD85B5816085BDF2
:1021100080916E00816080936E00109281008091AA
:102120008100826080938100809181008160809332
:102130008100809180008160809380008091B10057
:1021400084608093B1008091B00081608093B00082
:1021500080917A00846080937A0080917A00826016
:1021600080937A0080917A00816080937A008091D8
:102170007A00806880937A001092C100E091610437
:10218000F091620482E08083E0915D04F0915E044E
:102190001082E0915F04F091600480E180831092EE
:1021A0006904E0916504F091660486E08083E09123
:1021B0006304F0916404808180618083E091630412
:1021C000F0916404808188608083E0916304F091E1
:1021D0006404808180688083E0916304F0916404EA
:1021E00080818F7D80838DE293E00E94F50787E0F8
:1021F00098E09093FE048093FD046BEF7AE08EE408
:1022000093E00E94AA0A69E27BE082E593E00E94E3
:10221000AA0A6FE179E086E593E00E94AA0A62EEDD
:102220007AE08BE593E00E94AA0A109202051092D0
:10223000230580E991E0909346048093450480ED66
:1022400097E0909344048093430489E29CE5AFE4D3
:10225000BFE380934D0490934E04A0934F04B0933A
:1022600050048AE999E9A9E1BEE380934904909377
:102270004A04A0934B04B0934C041092800082E86F
:102280008093810060E088E00E94FC0080E286BBD1
:1022900080936F0064EF71E080E090E00E94520153
:1022A0008AE00E942C0A89E00E942C0A10925105B3
:1022B0000E94640981110E9481030E94640988239D
:1022C00029F08CE0809350050E9481031092D9037D
:1022D0001092D8031092D5031092D4030E943104B7
:1022E00084E891E09093B3038093B20385E891E092
:1022F0009093B1038093B00310923C0510923D057A
:1023000010923E0510923F05109241051092400533
:1023100081E594E00E94E401181619060CF061C0F2
:1023200081E594E00E94C2010E94D618182F809186
:10233000010518133AC044E255E06FEF74E082E003
:1023400095E00E946A146C01892BE9F06090FC040E
:10235000712CE090FA04F090FB04B12CA12CA6148F
:10236000B704D4F427014CE050E0B701C6010E9445
:10237000EE180FE0E00EF11C892B51F4D2011D96EE
:10238000ED91FC9109951092020510922305C0CFA2
:10239000BFEFAB1ABB0AE3CFE091FD04F091FE045E
:1023A000309789F3C6010995EECF812F012E000CDD
:1023B000990B0E94CF18892B09F4AACFE09123052D
:1023C000E03208F0A5CF81E08E0F80932305F0E086
:1023D000E650FB4F1087E82FF0E0E650FB4F1086E9
:1023E00097CF80914D0590914E050E9449036CEC6A
:1023F00080914D0590914E050E94FD0264E480910C
:102400004D0590914E050E94FD0256E2E52E55E0E5
:10241000F52E1B861A86D12CC12C3324339465ECFF
:10242000262E10913B053092D7031093D6031092BD
:10243000D5031092D40380913A056A857B85682B79
:102440008EEE94E00E9496050091D403013208F0CC
:1024500094C00E942D012B013C0180913504811113
:1024600067C022E020933504309214043FEF30938C
:1024700013041092120400931104E4EBF3E0AFEEA6
:10248000B3E0081360C11092100480911004110F82
:10249000182B1093100480910F04813009F057C15C
:1024A00010920F040E942D012B013C018091100419
:1024B0008093BB008091370490913804A091390437
:1024C000B0913A04892B8A2B8B2BA1F00E942D010D
:1024D00000913704109138042091390430913A0466
:1024E0006419750986099709061717072807390718
:1024F00008F43FC08091BC0083FDD8CF2092BC007F
:102500000E942D012B013C0180913504823009F499
:1025100022C1809113048F3F81F180911304803296
:1025200061F18091130429C0CC24C394D12C79CFBC
:102530008091370490913804A0913904B0913A0405
:10254000892B8A2B8B2B09F488CF0E942D01809038
:10255000370490903804A0903904B0903A0464197C
:1025600075098609970986169706A806B90608F020
:1025700074CF809136040E944F041092D5031092BC
:10258000D4031092D7036CE271E080E090E00E94E7
:10259000520180913A058C708C3009F0FEC064E0E5
:1025A00080913B050E9470041092D9038093D80358
:1025B0008EEE94E00E944F05482E8EEE94E00E942D
:1025C0004F05782E8EEE94E00E944F05442D440C6A
:1025D000550B660B770B762F652F542F44278A01F6
:1025E000072928013B01762C652C542C4424482AC9
:1025F0008EEE94E00E944F05E82FA8EEB3E0A30111
:1026000092010E94F01720914405E3702E0F3327AA
:10261000331F2B013C0104C0759467945794479471
:102620002A95D2F7C301B2010E94FC1520913C0506
:1026300030913D0540913E0550913F050E944E1757
:102640004B015C016091400570914105072E000C23
:10265000880B990B0E94FC159B01AC01C501B401CC
:102660000E94A7144B015C0120E030E0A9010E9408
:10267000D31620E030E040E05FE387FDA6C0C5014F
:10268000B4010E94A7140E94C4152091E203309166
:10269000E3034091E4035091E5032C873D874E8787
:1026A0005F87640D751D861D971D0E94FC152FE622
:1026B00032E143E85AE30E944E17AB01BC01D70157
:1026C000ED91FC910480F581E02D0C851D852E8512
:1026D0003F85C7010995C114D10409F07BC06093FF
:1026E000DE037093DF038093E0039093E1030A8598
:1026F0001B85005E1F4F1B870A871AE0E10EF11C45
:10270000CA94CD2809F010CF0E94640981116BC0D2
:10271000C12CD12C9EEFE92E92ECF92EC092E2034F
:10272000D092E303E092E403F092E50340E050E04E
:10273000452B09F4EDCD0E94F001882309F4E8CD82
:102740000E940000E5CD91919D938F5F9ACE45EE5A
:102750004093BC00D5CE8091370490913804A0916D
:102760003904B0913A04892B8A2B8B2B09F4CCCEF7
:102770000E942D01009137041091380420913904F2
:1027800030913A04641975098609970906171707E5
:102790002807390708F0B8CEECCE63E080913B05FE
:1027A0000E9470041092D9038093D8038EEE94E0B7
:1027B0000E944F05482E8EEE94E00E944F05042C97
:1027C000000C5508660877080ECFC501B4010E94B9
:1027D000A61459CF6093DA037093DB038093DC0374
:1027E0009093DD0384CF8091510580FF40C069E064
:1027F000CE0101960E94BD0368E0CE0101960E94C1
:1028000093029985891339C069817A81072E000C5A
:10281000880B990B0E94FC1520E030E040E85DE356
:102820000E944E176B017C0120E030E04CE552EC39
:102830000E94131587FD6CCF4090520550905305B0
:10284000609054057090550520E030E0A901C30167
:10285000B2010E941315882309F460CFA3019201ED
:10286000C701B6010E94A7146B017C0157CF62E03B
:10287000CE0101960E94BD03C7CFC12CD12CE12C03
:1028800083ECF82E4BCF1F93FC0199278827BC01BE
:10289000E89411911032E9F3193010F01E30C8F3AA
:1028A0001B3251F01D3249F4689406C00E94911405
:1028B000610F711D811D911D119110531A30B0F3DC
:1028C0003EF490958095709561957F4F8F4F9F4F07
:1028D0001F910895FA01A191B081009719F4109702
:1028E000E1F0CD01DC01CD010D90002011F4C0011B
:1028F00013C0FB012191222319F02015D9F7F3CF42
:10290000FB012191201519F41E92119606C0222375
:10291000C1F70D900020A1F7D001FA01A193B08377
:102920000895592F482F372F262F660F771F881F9E
:10293000991F660F771F881F991F620F731F841FCF
:10294000951F660F771F881F991F08955058BB2742
:10295000AA270E94BE140C9499160E948B1638F078
:102960000E94921620F039F49F3F19F426F40C943B
:1029700061160EF4E095E7FB0C945B16E92F0E94BC
:10298000AA1658F3BA17620773078407950720F051
:1029900079F4A6F50C94CC160EF4E0950B2EBA2F14
:1029A000A02D0B01B90190010C01CA01A001112455
:1029B000FF27591B99F0593F50F4503E68F11A1601
:1029C000F040A22F232F342F4427585FF3CF469592
:1029D00037952795A795F0405395C9F77EF41F16B4
:1029E000BA0B620B730B840BBAF09150A1F0FF0F7E
:1029F000BB1F661F771F881FC2F70EC0BA0F621F6A
:102A0000731F841F48F4879577956795B795F79559
:102A10009E3F08F0B0CF9395880F08F09927EE0FEE
:102A20009795879508950E94371608F481E00895D8
:102A30000E942C150C9499160E94921658F00E9430
:102A40008B1640F029F45F3F29F00C945B1651116E
:102A50000C94CD160C9461160E94AA1668F3992363
:102A6000B1F3552391F3951B550BBB27AA2762178A
:102A70007307840738F09F5F5F4F220F331F441F97
:102A8000AA1FA9F335D00E2E3AF0E0E832D09150CB
:102A90005040E695001CCAF72BD0FE2F29D0660FB8
:102AA000771F881FBB1F261737074807AB07B0E8FB
:102AB00009F0BB0B802DBF01FF2793585F4F3AF001
:102AC0009E3F510578F00C945B160C94CD165F3F39
:102AD000E4F3983ED4F3869577956795B795F79587
:102AE0009F5FC9F7880F911D9695879597F908956F
:102AF000E1E0660F771F881FBB1F6217730784070B
:102B0000BA0720F0621B730B840BBA0BEE1F88F719
:102B1000E095089529F416F00C945B160C94CC16ED
:102B20000C9461160E94B216A8F39638A0F707F825
:102B30000F92E8942BE33AEA48EB5FE70E946417B0
:102B40000F920F920F924DB75EB70F920E941A1715
:102B5000E8E6F0E00E9464164F915F91EF91FF91DB
:102B6000E595EE1FFF1F49F0FE57E0684427EE0F82
:102B7000441FFA95E1F74195550B0E94E4160F901A
:102B800007FE0C94D81608950E94CB156894B111D5
:102B90000C94CD1608950E94B21688F09F5798F0B5
:102BA000B92F9927B751B0F0E1F0660F771F881F52
:102BB000991F1AF0BA95C9F714C0B13091F00E946C
:102BC000CC16B1E008950C94CC16672F782F882787
:102BD000B85F39F0B93FCCF3869577956795B39593
:102BE000D9F73EF490958095709561957F4F8F4F02
:102BF0009F4F0895E89409C097FB3EF49095809507
:102C0000709561957F4F8F4F9F4F9923A9F0F92FB2
:102C100096E9BB279395F695879577956795B79530
:102C2000F111F8CFFAF4BB0F11F460FF1BC06F5F16
:102C30007F4F8F4F9F4F16C0882311F096E911C028
:102C4000772321F09EE8872F762F05C0662371F049
:102C500096E8862F70E060E02AF09A95660F771F5D
:102C6000881FDAF7880F9695879597F90895990F39
:102C70000008550FAA0BE0E8FEEF16161706E80746
:102C8000F907C0F012161306E407F50798F0621B67
:102C9000730B840B950B39F40A2661F0232B242B3C
:102CA000252B21F408950A2609F4A140A6958FEF5B
:102CB000811D811D089597F99F6780E870E060E0AD
:102CC00008959FEF80EC0895DF93CF931F930F93A8
:102CD000FF92EF92DF927B018C01689406C0DA2E9E
:102CE000EF010E946117FE01E894A59125913591AD
:102CF00045915591A6F3EF010E94BE14FE01970184
:102D0000A801DA9469F7DF90EF90FF900F911F917F
:102D1000CF91DF91089500240A941616170618061D
:102D20000906089500240A941216130614060506CF
:102D30000895092E0394000C11F4882352F0BB0F60
:102D400040F4BF2B11F460FF04C06F5F7F4F8F4FC3
:102D50009F4F089557FD9058440F551F59F05F3FFE
:102D600071F04795880F97FB991F61F09F3F79F0AD
:102D700087950895121613061406551FF2CF46952F
:102D8000F1DF08C0161617061806991FF1CF8695B1
:102D90007105610508940895E894BB276627772795
:102DA000CB0197F908950E94371608F48FEF089524
:102DB0009B01AC0160E070E080E89FE30C94181583
:102DC0000C945B160C94C0170E94B216D8F399238A
:102DD000C9F3940F511DA3F39150504094F059F052
:102DE000882332F0660F771F881F91505040C1F73B
:102DF0009E3F51052CF7880F911D9695879597F961
:102E000008955F3FACF0983E9CF0BB278695779580
:102E10006795B79508F4B1609395C1F7BB0F58F764
:102E200011F460FFE8CF6F5F7F4F8F4F9F4FE3CF6D
:102E30000C94CD16FA01DC01AA0FBB1F9B01AC015B
:102E4000BF5728F4222733274427507820C0B75192
:102E500090F4AB2F0024469537952795011CA39538
:102E6000D2F3002071F0220F331F441FB395DAF321
:102E70000ED00C94A61461307105A0E88A07B946FB
:102E800030F49B01AC01662777278827907830962D
:102E900021F0208331834283538308950E94611778
:102EA0000C9499160E948B1638F00E94921620F00E
:102EB000952311F00C945B160C94611611240C945C
:102EC000CD160E94AA1670F3959FC1F3950F50E09E
:102ED000551F629FF001729FBB27F00DB11D639FCC
:102EE000AA27F00DB11DAA1F649F6627B00DA11D72
:102EF000661F829F2227B00DA11D621F739FB00D18
:102F0000A11D621F839FA00D611D221F749F332787
:102F1000A00D611D231F849F600D211D822F762F20
:102F20006A2F11249F5750409AF0F1F088234AF0FD
:102F3000EE0FFF1FBB1F661F771F881F9150504069
:102F4000A9F79E3F510580F00C945B160C94CD16AA
:102F50005F3FE4F3983ED4F3869577956795B795F0
:102F6000F795E7959F5FC1F7FE2B880F911D96950A
:102F7000879597F908950E943716880B990B089545
:102F80009F3F31F0915020F4879577956795B795DD
:102F9000880F911D9695879597F90895A1E21A2EAD
:102FA000AA1BBB1BFD010DC0AA1FBB1FEE1FFF1FED
:102FB000A217B307E407F50720F0A21BB30BE40B3D
:102FC000F50B661F771F881F991F1A9469F7609584
:102FD0007095809590959B01AC01BD01CF0108953E
:102FE0000E940118A59F900DB49F900DA49F800D85
:102FF000911D11240895EE0FFF1F0590F491E02D0F
:103000000994A29FB001B39FC001A39F700D811DC1
:103010001124911DB29F700D811D1124911D0895E1
:10302000B0E0A0E0E6E1F8E10C94351A8C010097DD
:1030300051F4CB010E940B198C01C801CDB7DEB74A
:10304000E0E10C94511AFC01E60FF71F9C0122509D
:103050003109E217F30708F49DC0D901CD91DC9145
:103060001197C617D70798F0C530D10530F3CE01B8
:1030700004978617970708F3C61BD70B2297C193AF
:10308000D1936D937C93CF010E94A719D6CF5B019A
:10309000AC1ABD0A4C018C0E9D1EA0916605B09124
:1030A0006705512C412CF12CE12C109731F58091C2
:1030B0006405909165058815990509F05CC0461670
:1030C000570608F058C080910301909104010097C1
:1030D00041F48DB79EB74091070150910801841BC0
:1030E000950BE817F90708F055C0F0936505E093D4
:1030F0006405F90171836083A0CF8D919C91119734
:1031000012966C90129713967C901397A815B90598
:1031100059F56C0142E0C40ED11CCA14DB0420F145
:10312000AC014A195B09DA011296159780F06282A8
:10313000738251834083D9016D937C93E114F10430
:1031400071F0D7011396FC93EE93129776CF2296E7
:103150008C0F9D1FF90191838083F301EFCFF093D2
:103160006705E093660569CF4816590608F42C01F7
:103170007D01D3019ACFCB010E940B197C010097EE
:1031800049F0AE01B8010E94DE18C8010E94A719DB
:10319000870153CF10E000E050CF803209F0911149
:1031A0000C94301A80528F55D8F7089591110895D4
:1031B00081568A5108F4805285580895FB01DC013C
:1031C00002C001900D9241505040D8F70895FB0184
:1031D000DC0101900D920020E1F70895FB01DC0174
:1031E0004150504030F08D910190801919F4002029
:1031F000B9F7881B990B0895FB01DC014150504041
:1032000048F001900D920020C9F701C01D92415075
:103210005040E0F708950F931F93CF93DF938230D0
:10322000910510F482E090E0E0916605F091670569
:1032300030E020E0B0E0A0E0309799F421153105AE
:1032400009F44AC0281B390B24303105D8F58A818E
:103250009B816115710589F1FB0193838283FE01D6
:1032600011C0408151810281138148175907E0F054
:103270004817590799F4109761F012960C9312971A
:1032800013961C933296CF01DF91CF911F910F912E
:1032900008950093660510936705F4CF2115310555
:1032A00051F04217530738F0A901DB019A01BD0123
:1032B000DF01F801C1CFEF01F9CF9093670580934B
:1032C0006605CDCFFE01E20FF31F8193919322504B
:1032D000310939832883D7CF209164053091650562
:1032E000232B41F4209105013091060130936505AF
:1032F00020936405209103013091040121153105CB
:1033000041F42DB73EB74091070150910801241BAD
:10331000350BE0916405F0916505E217F307A0F421
:103320002E1B3F0B2817390778F0AC014E5F5F4F1B
:103330002417350748F04E0F5F1F509365054093E3
:103340006405819391939FCFF0E0E0E09CCFCF9311
:10335000DF930097E9F0FC01329713821282A0916B
:103360006605B0916705ED0130E020E01097A1F40B
:1033700020813181820F931F209164053091650572
:103380002817390709F061C0F0936505E0936405DB
:10339000DF91CF910895EA01CE17DF07E8F54A8162
:1033A0005B819E0141155105B1F7E901FB83EA8379
:1033B00049915991C40FD51FEC17FD0761F4808125
:1033C00091810296840F951FE901998388838281F8
:1033D00093819B838A83F0E0E0E012968D919C912B
:1033E00013970097B9F52D913C911197CD01029655
:1033F000820F931F209164053091650528173907C6
:1034000039F6309751F51092670510926605B09322
:103410006505A0936405BCCFD383C28340815181ED
:10342000840F951FC817D90761F44E5F5F4F8881DD
:103430009981480F591F518340838A819B819383CF
:1034400082832115310509F0B0CFF0936705E09331
:1034500066059ECFFD01DC01C0CF13821282D7CF5B
:103460009927882708952F923F924F925F926F92EB
:103470007F928F929F92AF92BF92CF92DF92EF9204
:10348000FF920F931F93CF93DF93CDB7DEB7CA1B85
:10349000DB0B0FB6F894DEBF0FBECDBF09942A88B0
:1034A000398848885F846E847D848C849B84AA8458
:1034B000B984C884DF80EE80FD800C811B81AA81E5
:1034C000B981CE0FD11D0FB6F894DEBF0FBECDBFB0
:1034D000ED010895F894FFCF01204E0000680580AB
:1034E00000204E1045A542ED40893F593E4C3D58C5
:1034F0003C793BA93AE6392E397E38D73736379BA7
:103500003606367535E8345F34DA335733D8325BF4
:1035100032E0316731F1307C300930982F282FB9F3
:103520002E4B2EDF2D742D092D9F2C372CCF2B6782
:103530002B002B9A2A342ACF296A290529A1283C55
:1035400028D82774271027AC264826E4257F251B7A
:1035500025B6245124EC2386232023B9225122E9C5
:103560002181211721AC204120D51F671FF81E881B
:103570001E171EA41D2F1DB91C401CC51B481BC9AE
:103580001A461AC1193819AB181A188517EA1649BC
:1035900016A215F2143A147713A712C811D410C743
:1035A0000F970E330D7B0B10090000000000000088
:1035B00000000049CE03C34063C9411CABC8417938
:1035C000354142EB4895BF98F9A03D25B1D2BFAA3D
:1035D000AB8ABF0A2980BEDCD55F3DFDD165BFF651
:1035E0004BAA3DDAFC7CBA6631BFBE7B3349BC22B4
:1035F000AD1337756CB1BDE380803AB89B05B3FC61
:10360000382BBC8C1839B8000000004F1B08BA7763
:10361000F78D350000000000000000A8DC34B20087
:1036200000000000000000BE2E90BC7596213DD722
:103630006B1F3DA928C637A8AE9B37F068B0B464AD
:1036400095D5B3C078ABB1260CAF2F397494AEBE0C
:10365000D41DAB809821AB17A02126D90460A758B0
:1036600004BDA054CC40A3A6E5EA1A4CD9BB9E3BAE
:10367000C26F940BDD9D99000000003F5F7F00004A
:10368000000026028601B3017302E401C201D601E3
:103690000000000096056905C5053F0562054F0558
:1036A0004005000000000E078006E606AD06EB0BA5
:1036B000C8055806300601060D0A00556E7265638E
:1036C0006F676E697A656420617267756D656E7487
:1036D0003A20006E616E00696E66006F766600309B
:1036E0002E302C002C35352C002320416374697654
:1036F00065206368616E6E656C73207365742074F9
:103700006F20003B005374617274696E67204172D0
:10371000746973616E20526F6173746572204172B7
:103720006475696E6F005057520046414E00524515
:083730004144004348414E00F2
:107E0000112484B714BE81FFF0D085E080938100F7
:107E100082E08093C00088E18093C10086E0809377
:107E2000C20080E18093C4008EE0C9D0259A86E02C
:107E300020E33CEF91E0309385002093840096BBD3
:107E4000B09BFECF1D9AA8958150A9F7CC24DD24C4
:107E500088248394B5E0AB2EA1E19A2EF3E0BF2EE7
:107E6000A2D0813461F49FD0082FAFD0023811F036
:107E7000013811F484E001C083E08DD089C08234E0
:107E800011F484E103C0853419F485E0A6D080C0E4
:107E9000853579F488D0E82EFF2485D0082F10E0AE
:107EA000102F00270E291F29000F111F8ED06801E7
:107EB0006FC0863521F484E090D080E0DECF843638
:107EC00009F040C070D06FD0082F6DD080E0C81688
:107ED00080E7D80618F4F601B7BEE895C0E0D1E017
:107EE00062D089930C17E1F7F0E0CF16F0E7DF06D8
:107EF00018F0F601B7BEE89568D007B600FCFDCFD4
:107F0000A601A0E0B1E02C9130E011968C91119780
:107F100090E0982F8827822B932B1296FA010C0160
:107F200087BEE89511244E5F5F4FF1E0A038BF0790
:107F300051F7F601A7BEE89507B600FCFDCF97BE46
:107F4000E89526C08437B1F42ED02DD0F82E2BD052
:107F50003CD0F601EF2C8F010F5F1F4F84911BD097
:107F6000EA94F801C1F70894C11CD11CFA94CF0C13
:107F7000D11C0EC0853739F428D08EE10CD085E9AC
:107F80000AD08FE07ACF813511F488E018D01DD067
:107F900080E101D065CF982F8091C00085FFFCCF94
:107FA0009093C60008958091C00087FFFCCF809118
:107FB000C00084FD01C0A8958091C6000895E0E648
:107FC000F0E098E1908380830895EDDF803219F02E
:107FD00088E0F5DFFFCF84E1DECF1F93182FE3DFCA
:107FE0001150E9F7F2DF1F91089580E0E8DFEE27F6
:047FF000FF270994CA
:027FFE00040479
:00000001FF
